:100000000C94C7010C94E4010C94E4010C94E401F9
:100010000C94E4010C94E4010C94E4010C94E401CC
:100020000C94E4010C94E4010C94E4010C94E401BC
:100030000C94E4010C94E4010C94E4010C94E401AC
:100040000C94E4010C94E4010C94E4010C94E4019C
:100050000C94E4010C94E4010C94E4010C94E4018C
:100060000C94E4010C94E4010C94E4010C94E4017C
:100070000C94E4010C94E4010C94E4010C94E4016C
:100080000C94E4010C94E4010C94E4010C94E4015C
:100090000C94E4010C94E4010C94E4010C94E4014C
:1000A0000C94E4010C94E4010C94E4016E616E0084
:1000B000696E660000407A10F35A00A0724E18096B
:1000C0000010A5D4E80000E87648170000E40B54BF
:1000D000020000CA9A3B000000E1F505000080968E
:1000E0009800000040420F000000A08601000000C0
:1000F000102700000000E80300000000640000007A
:1001000000000A00000000000100000000002C7642
:10011000D888DC674F0823DFC1DFAE59E1B1B7965D
:10012000E5E3E453C63AE651997696E8E6C28426BA
:10013000EB898C9B62ED407C6FFCEFBC9C9F40F296
:10014000BAA56FA5F490055A2AF75C936B6CF96712
:100150006DC11BFCE0E40D47FEF520E6B500D0EDD7
:10016000902E0300943577050080841E080000203F
:100170004E0A000000C80C333333330F986E1283DD
:100180001141EF8D2114893BE65516CFFEE6DB18B1
:10019000D1844B381BF77C1D901DA4BBE424203276
:1001A00084725E228100C9F124ECA1E53D270000A4
:1001B00000000000005F00000007000700147F142B
:1001C0007F14242A7F2A1223130864623649552299
:1001D000500005030000001C2241000041221C00C9
:1001E00014083E081408083E0808005030000008B3
:1001F00008080808006060000020100804023E5152
:1002000049453E00427F40004261514946214145F7
:100210004B311814127F1027454545393C4A49494E
:100220003001710905033649494936064949291EF5
:100230000036360000005636000008142241001433
:100240001414141400412214080201510906324901
:1002500079413E7E1111117E7F494949363E414127
:1002600041227F4141221C7F494949417F090909B7
:10027000013E4149497A7F0808087F00417F4100DB
:100280002040413F017F081422417F404040407F91
:10029000020C027F7F0408107F3E4141413E7F09EE
:1002A0000909063E4151215E7F09192946464949FF
:1002B000493101017F01013F4040403F1F20402064
:1002C0001F3F4038403F6314081463070870080755
:1002D0006151494543007F4141000204081020005C
:1002E00041417F00040201020440404040400001BF
:1002F00002040020545454787F484444383844441D
:100300004420384444487F3854545418087E090126
:10031000020C5252523E7F0804047800447D400093
:100320002040443D007F1028440000417F40007C75
:10033000041804787C0804047838444444387C1455
:10034000141408081414187C7C0804040848545435
:100350005420043F4440203C4040207C1C2040204E
:100360001C3C4030403C44281028440C5050503C29
:100370004464544C44000836410000007F000000F3
:1003800041360800100808100878464146781124C4
:100390001FBECFEFDAE0DEBFCDBF11E0A0E0B1E0DD
:1003A000E8E6F7E102C005900D92A431B107D9F754
:1003B00023E0A4E1B1E001C01D92AC30B207E1F747
:1003C0000E9462020C94B20B0C9400009C01990FE5
:1003D000440B550B60E874E88EE190E00E94DD0963
:1003E000215031094109510956954795379527956F
:1003F0003093CD002093CC0082E08093C80088E148
:100400008093C90086E08093CA000895E1E6F0E099
:1004100080E8808381E0808380E895E20E94E601A5
:100420008FE30E9498040E94C8040C94700290917B
:10043000C80095FFFCCF9091C9009E7F9093C900A2
:100440008093CE0008958091C80087FFFCCF8091F3
:10045000CE000895CF930E94830221E041E051E055
:1004600060E080E00E945A04809100010E9417021F
:1004700021E04CE051E06AE080E00E945A0421E073
:10048000409100016AE08FE00E94FF03809100012B
:100490008F5F8B37A8F4809300010E942302C82F3E
:1004A00021E040E151E064E180E00E945A0421E053
:1004B0004C2F64E18FE00E94FF03CF910C947002F7
:1004C00081E6E9CF0E9406020E942A022FEF89E608
:1004D00098E1215080409040E1F700C00000F4CF47
:1004E000CF93DF9360E080E00E94D504C4E1D1E0C7
:1004F000699181E00E947A0483E0CC30D807C1F78B
:10050000DF91CF910895E4E1F1E0119283E0EC30C6
:10051000F807D9F708958435D8F46033C8F4962FD6
:10052000969596959695E82FF0E084E5989FE00DD6
:10053000F11D1124EC5EFE4F2081677081E090E098
:1005400001C0880F6A95EAF7442319F0822B808353
:10055000089580958223FBCF2F923F924F925F9216
:100560006F927F928F929F92AF92BF92CF92DF92C3
:10057000EF92FF920F931F93CF93DF93CDB7DEB728
:100580002E970FB6F894DEBF0FBECDBF89836B8365
:10059000242E122F841330C0E62EF12CC22ED12C23
:1005A0002B812117E8F4CE14DF040CF01FC12E9626
:1005B0000FB6F894DEBF0FBECDBFDF91CF911F9174
:1005C0000F91FF90EF90DF90CF90BF90AF909F90F2
:1005D0008F907F906F905F904F903F902F900895F5
:1005E000EC14FD0424F3402F6E2D89810E948B02B0
:1005F00021E0E21AF108D4CF3B81321320C0898177
:10060000E82EF12CC42ED12C9981921560F4CE14D1
:10061000DF046CF2402F6B818E2D0E948B023FEF26
:10062000E31AF30AF1CFEC14FD040CF2402F6B81B6
:100630008E2D0E948B0281E0E81AF108E5CF298116
:10064000421728F0812F1B818B83222E49839981A9
:10065000892F90E09A838983312CBC016219730938
:10066000072E000C880B990B0E9428096D837E834E
:100670008F8398873B81232F30E03C832B83812F0E
:1006800090E09E878D87B901681B790B072E000CBF
:10069000880B990B0E9428094B015C012D813E813A
:1006A0004F8158850E94B4082B013C0120E030E0C6
:1006B000A9010E94D80987FF04C077FA709477F8DF
:1006C0007094C12CD12C760120E030E0A9016D811D
:1006D0007E818F8198850E94D80918160CF07FC002
:1006E00029813A81221533050CF461CF122D402F58
:1006F0006D85822D0E948B02A3019201C701B60174
:100700000E9443086B017C0120E030E040E05FE3A1
:100710000E94D80987FD10C020E030E0A901C50182
:10072000B4010E94D8091816BCF48B819C812D85D8
:100730003E8582179307BCF420E030E0A9016D816B
:100740007E818F8198850E94D80918160CF043C0CD
:100750003FEF231A330AB8CF8B819C812D853E85CC
:10076000281739074CF3402F6D85812F0E948B028B
:1007700021E030E03A87298720E030E0A901C50177
:10078000B4010E94D809181614F01A86198681E05F
:1007900090E09C878B8720E030E0A901C501B4017F
:1007A0000E94AF0887FD02C01C861B8689859A853A
:1007B0002B853C85821B930B2D853E85280F391F89
:1007C0003E872D8720E030E040E85FE3C701B601B7
:1007D0000E94420897CF81E0281A310875CF89819D
:1007E0009A81281639060CF081CFE1CE402F6E2D6C
:1007F00089810E948B029FEFE91AF90AD1CE7F927C
:100800008F929F92AF92BF92CF92DF92EF92FF9220
:100810000F931F93CF93DF93982E862E722E405204
:10082000550B25E0249FC001259F900D1124F12C2C
:10083000E12C9C0122553E4F6901AA24A394B12CBE
:10084000F601EE0DFF1DE491711001C0E09510E07E
:1008500000E0CE2FD0E0A501002E02C0440F551FAE
:100860000A94E2F74C235D23002E02C0559547956C
:100870000A94E2F7682D600F892D0E948B020F5FAA
:100880001F4F0830110539F73FEFE31AF30A93942D
:1008900085E0E816F104A1F6DF91CF911F910F9149
:1008A000FF90EF90DF90CF90BF90AF909F908F9090
:1008B0007F900895EF92FF920F931F93CF93DF9352
:1008C000D82FF62E8A01E22EC0E0F801EC0FF11DC0
:1008D0004081411107C0DF91CF911F910F91FF908F
:1008E000EF9008952E2D6F2D8D2F0E94FF03DB5F5B
:1008F000CF5FEBCF95B19F7D40E2849F90011124A3
:10090000922B95B95F9887E090E070E08F989B01FB
:10091000082E02C0359527950A94E2F720FF06C0FD
:100920002E9A8F9A019790F75F9A08952E98F9CF93
:10093000CF93C82F579A249A259A269A879A2C984B
:100940005F9A2C9A61E280E00E947A046C2F6068C2
:1009500080E00E947A0464E080E00E947A0463E10F
:1009600080E00E947A046CE080E00E947A0460E2F9
:1009700080E00E947A046CE080E00E947A0460E4E7
:1009800080E00E947A0460E880E0CF910C947A04C1
:10099000CF93DF93C8EFD1E060E081E00E947A045A
:1009A0002197D1F7DF91CF910895CF93C82F60643D
:1009B00080E00E947A046C2F606880E0CF910C94F4
:1009C0007A04AFE0B0E0E7EEF4E00C94FF096C01CC
:1009D0001B015A01FC0117821682838181FF48C3E3
:1009E0009E012F5F3F4F4901F6019381F10193FD75
:1009F000859193FF81911F01882309F4E7C2853215
:100A000039F493FD859193FF81911F01853239F46B
:100A1000B60190E00E94240B35015301E5CFF12C83
:100A2000512C00E0003238F48B3209F190F480321E
:100A3000F9F0833209F107FD34C020ED280F2A3088
:100A400020F506FF1BC0FAE0FF9E200D1124F22EB8
:100A500005C08D3279F0803371F70160F10193FDAB
:100A6000859193FF81911F018111DCCF1AC0026033
:100A70000460F4CF0860F2CF0061F0CF3AE0539EFB
:100A8000200D1124522E0062E9CF8E3221F406FD92
:100A90009DC20064E3CF8C3611F40068DFCF883646
:100AA000E9F29BEB980F933008F05FC00061805E25
:100AB00006FD02C046E0F42E102F1F73853609F0A4
:100AC0005BC0106417FF61C08F2D9BE39F1508F476
:100AD0008BE344244394480E27E03501F4E06F0E85
:100AE000711CF5016081718182819381042DA401C3
:100AF0000E94360A5C01F981FC87F0FF03C00DE219
:100B0000F3FF07C00BE211FD04C0012F047012FDBA
:100B100000E22C852C70E22E09F457C00111ABC203
:100B2000F3E0E12CF515A0F483E0E52CE81A13FDC1
:100B300008C0B60180E290E00E94240BEA94E11024
:100B4000F8CF002329F0B601802F90E00E94240BFB
:100B50003C852CEAA22E20E0B22E33FD04C090EB9F
:100B6000A92E90E0B92E107122C09BE9980F933006
:100B700008F033C10F7E9CCF863611F41068A2CFE7
:100B8000FF2009F49FCFFA949DCFE7E02F2DEF15BA
:100B900018F427E037E0F32E412C9FCF111180523B
:100BA000B60190E00E94240B8FEFA81AB80AF50155
:100BB00084918111F3CFEE2009F42FCFB60180E2AA
:100BC00090E00E94240BEA94F6CF17FF6FC04A0C06
:100BD000FC85F4FF04C08A81813309F44A9414141B
:100BE0000CF086C028E0241510F488E0482E85E03B
:100BF00090E017FF06C0C501B7FE02C090E080E09C
:100C0000019601110196FF2031F02F2D30E02F5F6A
:100C10003F4F820F931F5816190619F014F0E52C58
:100C2000E81A812F897011F4E11067C0002329F0C0
:100C3000B601802F90E00E94240B13FD02C0E1104A
:100C400063C017FF7CC08501B7FE02C010E000E062
:100C5000C501841991092C016F2D70E0EE27FF2743
:100C6000E61BF70BFF87EE870F3F100729F4B6014D
:100C70008EE290E00E94240BA016B1060CF44BC04B
:100C8000401651060CF047C0F501E01BF10BE80DD2
:100C9000F91D8181015011092E853F850217130727
:100CA000E4F1B60190E00E94240BDECF16FD9FCF49
:100CB000EF2DF0E0EA15FB0534F03CEFA3163FEF13
:100CC000B3060CF010683296E80DF91D01C0FA94D5
:100CD000FF2019F082918033D1F317FF88CF44248D
:100CE00043944F0CFA141B0431F02CF0FA187FCF08
:100CF000442443947CCFF12C7ACFB60180E290E07B
:100D00000E94240BEA9490CFB60180E390E00E9409
:100D1000240BEA9494CF80E3BDCFA016B10641F432
:100D20009A81963350F4953319F43C8534FF05C00D
:100D3000B60190E00E94240B3ECF81E3F9CF8A8177
:100D4000813319F09C859F7E9C87B60190E00E94BC
:100D5000240BFF20A9F0B6018EE290E00E94240B44
:100D6000F394F394E2E001E00E0FE80DF92DF11D8C
:100D70008081B60190E00E94240BE02F0F11F3CF89
:100D800085E690E014FF02C085E490E0B6010E9481
:100D9000240BB7FC06C0A114B104C1F4EC85E4FF38
:100DA00015C0B194A194B1088DE2B60190E00E9403
:100DB000240B80E32AE0A216B10454F4B60190E0BB
:100DC0000E94240BB601C501C096B4CF8BE2EDCFD3
:100DD0008F5FFAE0AF1AB108EDCF8336C9F08337E1
:100DE00071F1833509F05BC03501F2E06F0E711CC3
:100DF000F501A080B1806F2D70E006FD02C06FEF9D
:100E00007FEFC5010E940E0B9D878C8700680DC087
:100E1000350132E0630E711CF5018081898321E088
:100E200030E03D872C8754010F7703FD06C02C85E9
:100E30003D855216130609F0A8F4E52C2BC03501A8
:100E400032E0630E711CF501A080B1806F2D70E05F
:100E500006FD02C06FEF7FEFC5010E94190B9D8751
:100E60008C87E2CFB60180E290E00E94240B5A9476
:100E7000DECFF50107FD859107FF81915F01B60186
:100E800090E00E94240BE110EA948C859D850197E7
:100E90009D878C87EC85FD85EF2B59F78CCE8436AA
:100EA00019F0893609F074C0350107FF66C0F4E017
:100EB0006F0E711CF5016081718182819381102F09
:100EC0001F7697FF08C090958095709561957F4F2C
:100ED0008F4F9F4F10682AE030E0A4010E94540B0E
:100EE000A82EA818BA2C012F16FF0AC00E7FAF1427
:100EF00038F414FF04C012FD02C0012F0E7EBF2C77
:100F000004FF8EC0FE01EA0DF11D8081803309F0DF
:100F100080C0097EF02FF870EF2E03FD90C000FF17
:100F20008AC0FA2CB51410F4F50CFB1804FF8DC020
:100F3000B60180E390E00E94240B02FF09C088E71D
:100F400090E001FF02C088E590E0B6010E94240B0A
:100F5000AF1408F486C0AA940A2D10E00F5F1F4F4B
:100F6000080D191DF80182918F01B60190E00E94D1
:100F7000240B80169106B1F71ECEF2E06F0E711CA5
:100F8000F50160817181072E000C880B990B97CFBA
:100F9000102F8537A9F41F7E2AE030E0350117FFB6
:100FA0002FC0F4E06F0E711CF501608171818281A8
:100FB0009381A4010E94540BA82EA8181F7792CFEA
:100FC000197F8F36D1F048F4883591F0F60186818B
:100FD00097812F96E2E10C941B0A803739F088370D
:100FE000A9F714FD146020E130E0D8CF1061F9CFEB
:100FF00004FD166020E132E0D1CF28E030E0CECF12
:10100000F2E06F0E711CF5016081718190E080E06B
:10101000D0CF02FD02C0B3947DCFB394B3947ACF06
:10102000802F867809F476CFF6CFB60180E290E083
:101030000E94240BB394B514C0F3E12C77CFE52CB8
:10104000EB18B51408F472CFF8CF802F867809F426
:101050007FCF8BE201FF80E207FD8DE2B60190E0D9
:1010600075CFB60180E390E00E94240BFA9470CF14
:101070008FEF9FEFAECF24E0E12C251508F063CD74
:1010800084E053CD5058BB27AA270E945A080C94DD
:101090009E090E94900938F00E94970920F039F4C7
:1010A0009F3F19F426F40C948D090EF4E095E7FBAC
:1010B0000C948709E92F0E94AF0958F3BA17620709
:1010C00073078407950720F079F4A6F50C94D109ED
:1010D0000EF4E0950B2EBA2FA02D0B01B901900153
:1010E0000C01CA01A0011124FF27591B99F0593F97
:1010F00050F4503E68F11A16F040A22F232F342FDF
:101100004427585FF3CF469537952795A795F0402C
:101110005395C9F77EF41F16BA0B620B730B840B41
:10112000BAF09150A1F0FF0FBB1F661F771F881FF9
:10113000C2F70EC0BA0F621F731F841F48F4879551
:1011400077956795B795F7959E3F08F0B0CF939543
:10115000880F08F09927EE0F9795879508950E94BC
:10116000630908F481E008950E94C8080C949E0960
:101170000E94970958F00E94900940F029F45F3FBF
:1011800029F00C94870951110C94D2090C948D0903
:101190000E94AF0968F39923B1F3552391F3951B8E
:1011A000550BBB27AA2762177307840738F09F5F88
:1011B0005F4F220F331F441FAA1FA9F335D00E2EF5
:1011C0003AF0E0E832D091505040E695001CCAF762
:1011D0002BD0FE2F29D0660F771F881FBB1F261725
:1011E00037074807AB07B0E809F0BB0B802DBF01FC
:1011F000FF2793585F4F3AF09E3F510578F00C94CB
:1012000087090C94D2095F3FE4F3983ED4F38695A6
:1012100077956795B795F7959F5FC9F7880F911DEB
:101220009695879597F90895E1E0660F771F881FD7
:10123000BB1F621773078407BA0720F0621B730B8A
:10124000840BBA0BEE1F88F7E0950895E89409C067
:1012500097FB3EF490958095709561957F4F8F4FE9
:101260009F4F9923A9F0F92F96E9BB279395F695FF
:10127000879577956795B795F111F8CFFAF4BB0F7D
:1012800011F460FF1BC06F5F7F4F8F4F9F4F16C0E1
:10129000882311F096E911C0772321F09EE8872F6B
:1012A000762F05C0662371F096E8862F70E060E027
:1012B0002AF09A95660F771F881FDAF7880F9695A0
:1012C000879597F90895990F0008550FAA0BE0E844
:1012D000FEEF16161706E807F907C0F012161306F8
:1012E000E407F50798F0621B730B840B950B39F438
:1012F0000A2661F0232B242B252B21F408950A269E
:1013000009F4A140A6958FEF811D811D089597F9DD
:101310009F6780E870E060E008959FEF80EC08959B
:1013200000240A94161617061806090608950024C4
:101330000A9412161306140605060895092E03943E
:10134000000C11F4882352F0BB0F40F4BF2B11F4B2
:1013500060FF04C06F5F7F4F8F4F9F4F089557FD11
:101360009058440F551F59F05F3F71F04795880F13
:1013700097FB991F61F09F3F79F0879508951216AA
:1013800013061406551FF2CF4695F1DF08C0161656
:1013900017061806991FF1CF869571056105089407
:1013A0000895E894BB2766277727CB0197F908951E
:1013B0000E94630908F48FEF0895A1E21A2EAA1B78
:1013C000BB1BFD010DC0AA1FBB1FEE1FFF1FA217F5
:1013D000B307E407F50720F0A21BB30BE40BF50BF2
:1013E000661F771F881F991F1A9469F7609570957B
:1013F000809590959B01AC01BD01CF0108952F927E
:101400003F924F925F926F927F928F929F92AF9294
:10141000BF92CF92DF92EF92FF920F931F93CF93E1
:10142000DF93CDB7DEB7CA1BDB0B0FB6F894DEBF78
:101430000FBECDBF09942A88398848885F846E849E
:101440007D848C849B84AA84B984C884DF80EE80E8
:10145000FD800C811B81AA81B981CE0FD11D0FB6F1
:10146000F894DEBF0FBECDBFED010895283008F01F
:1014700027E03327DA01990F311D87FD916000962F
:101480006105710539F432602E5F3D9330E32A9592
:10149000E1F708959F3F30F080387105610509F04C
:1014A0003C5F3C5F3D93913008F08068911DDF9375
:1014B000CF931F930F93FF92EF92192F987F9695DA
:1014C000E92F96959695E90FFF27E25FFE4F992742
:1014D0003327EE24FF24A701E70105900894079421
:1014E00028F4360FE71EF81E491F511D660F771F9F
:1014F000881F991F0694A1F70590079428F4E70E1A
:10150000F81E491F561FC11D770F881F991F661FA0
:101510000694A1F70590079428F4F80E491F561F6A
:10152000C71FD11D880F991F661F771F0694A1F74B
:101530000590079420F4490F561FC71FD81F990F15
:10154000661F771F881F0694A9F78491109517705E
:1015500041F0D695C79557954795F794E7941A9516
:10156000C1F7E4EBF0E06894159015913591659121
:10157000959105907FE27395E118F10A430B560BA4
:10158000C90BD009C0F7E10CF11E431F561FC91F3C
:10159000D01D7EF4703311F48A95E6CFE8940150A3
:1015A00030F0080F0AF40027021708F4202F2395C3
:1015B000022F7A3328F079E37D932A95E9F710C05A
:1015C0007D932A9589F60694979567953795179593
:1015D0001794E118F10A430B560BC90BD00998F088
:1015E00023957E9173957A3308F070E37C932013F2
:1015F000B8F77E9170617D9330F0839571E37D93B0
:1016000070E32A95E1F71124EF90FF900F911F915D
:10161000CF91DF91992787FD90950895FC01059062
:10162000615070400110D8F7809590958E0F9F1FE4
:101630000895FC016150704001900110D8F7809529
:1016400090958E0F9F1F08950F931F93CF93DF9355
:10165000182F092FEB018B8181FD09C01FEF0FEFC0
:10166000812F902FDF91CF911F910F91089582FFCD
:1016700014C02E813F818C819D81281739073CF44D
:10168000E881F981CF0101969983888310838E8147
:101690009F8101969F838E83E3CFE885F985812F13
:1016A0000995892BA1F3DACFFA01AA27283051F145
:1016B000203181F1E8946F936E7F6E5F7F4F8F4F83
:1016C0009F4FAF4FB1E03ED0B4E03CD0670F781FE2
:1016D000891F9A1FA11D680F791F8A1F911DA11DC7
:1016E0006A0F711D811D911DA11D20D009F4689400
:1016F0003F912AE0269F11243019305D3193DEF6A8
:10170000CF010895462F4770405D4193B3E00FD05D
:10171000C9F7F6CF462F4F70405D4A3318F0495D48
:1017200031FD4052419302D0A9F7EACFB4E0A6952B
:101730009795879577956795BA95C9F7009761054D
:10174000710508959B01AC010A2E069457954795A3
:1017500037952795BA95C9F7620F731F841F951F98
:08176000A01D0895F894FFCFCD
:1017680061554152542054582F52580054583A0049
:0417780052583A0089
:00000001FF
