:100000000C94D7000C94F4000C94F4000C94F400BD
:100010000C94F4000C94F4000C94F4000C94F40090
:100020000C94F4000C94F4000C94F4000C94F40080
:100030000C94F4000C94F4000C94F4000C94F40070
:100040000C94F4000C94F4000C94F4000C94F40060
:100050000C94F4000C94F4000C94F4000C94F40050
:100060000C94F4000C94F4000C94F4000C94F40040
:100070000C94F4000C94F4000C94F4000C94F40030
:100080000C94F4000C94F4000C94F4000C94F40020
:100090000C94F4000C94F4000C94F4000C94F40010
:1000A0000C94F4000C94F4000C94F4006E616E0057
:1000B000696E660000407A10F35A00A0724E18096B
:1000C0000010A5D4E80000E87648170000E40B54BF
:1000D000020000CA9A3B000000E1F505000080968E
:1000E0009800000040420F000000A08601000000C0
:1000F000102700000000E80300000000640000007A
:1001000000000A00000000000100000000002C7642
:10011000D888DC674F0823DFC1DFAE59E1B1B7965D
:10012000E5E3E453C63AE651997696E8E6C28426BA
:10013000EB898C9B62ED407C6FFCEFBC9C9F40F296
:10014000BAA56FA5F490055A2AF75C936B6CF96712
:100150006DC11BFCE0E40D47FEF520E6B500D0EDD7
:10016000902E0300943577050080841E080000203F
:100170004E0A000000C80C333333330F986E1283DD
:100180001141EF8D2114893BE65516CFFEE6DB18B1
:10019000D1844B381BF77C1D901DA4BBE424203276
:1001A00084725E228100C9F124ECA1E53D2711246F
:1001B0001FBECFEFDAE0DEBFCDBF11E0A0E0B1E0BF
:1001C000E4E6FFE002C005900D92A837B107D9F729
:1001D00021E0A8E7B1E001C01D92AE37B207E1F718
:1001E0000E942C010C94B0070C94000021E030E038
:1001F00001C0220F6A95EAF7822B08958095089531
:1002000021E030E001C0220F6A95EAF720958223B1
:10021000089521E030E001C0220F6A95EAF78227B5
:10022000089547E050E030E020E0EAE090E0E29F0F
:10023000B001E39F700D11249C01042E02C035957E
:1002400027950A94E2F721703327260F371F415074
:10025000510968F7C90108958FE29BEC0E94A90536
:10026000D0E0C0E0C12CDD24D39498E0A92EB12CBD
:10027000EE24E394F12C34E0832E31E0932E0E949F
:10028000A405B6010E94F904782E0E94A405B501C8
:100290000E94F904582E492E209721F08AE090E020
:1002A0000E94E8068701052C01C0000F0A94EAF7B6
:1002B000872D802B0E941101382E292E872D0E9418
:1002C0001101182F692E2F923F924F925F929F93A8
:1002D0008F939F928F920E94D206872D80950E94C5
:1002E00011019F938F936F921F9381E291E09F93EF
:1002F0008F930E94D206802F809587210E94110142
:100300009F938F934F925F926F921F938DE391E033
:100310009F938F930E94D206872D80270E94110100
:100320009F938F934F925F926F921F938AE591E014
:100330009F938F930E94D20621968DB79EB74E96BB
:100340000FB6F8949EBF0FBE8DBFC530D10509F022
:1003500096CF90E080E00895AFE0B0E0E2EBF1E00E
:100360000C940D056C011B014A01FC0117821682D9
:10037000838181FF34C39E012F5F3F4F3901F60116
:100380009381F10193FD859193FF81911F01882352
:1003900009F4D6C2853239F493FD859193FF81919A
:1003A0001F01853239F4B60190E00E94A206540183
:1003B0004501E5CFF12C512C00E0003238F48B32AE
:1003C00009F190F48032F9F0833209F107FD34C06D
:1003D00020ED280F2A3020F506FF1BC0FAE0FF9E13
:1003E000200D1124F22E05C08D3279F0803371F783
:1003F0000160F10193FD859193FF81911F018111AE
:10040000DCCF1AC002600460F4CF0860F2CF006154
:10041000F0CF3AE0539E200D1124522E0062E9CF16
:100420008E3221F406FD8CC20064E3CF8C3611F4C9
:100430000068DFCF8836E9F29BEB980F933008F025
:100440005CC00061805E06FD02C046E0F42E102F05
:100450001F73853609F058C0106417FF5EC08F2DDA
:100460009BE39F1508F48BE344244394480E27E054
:10047000F40161917191819191915F01042DA3012A
:100480000E94B4054C01F981FC87F0FF03C00DE226
:10049000F3FF07C00BE211FD04C0012F047012FD31
:1004A00000E22C852C70E22E09F457C001119AC28B
:1004B000F3E0E12CF515A0F483E0E52CE81A13FD38
:1004C00008C0B60180E290E00E94A206EA94E11022
:1004D000F8CF002329F0B601802F90E00E94A206F9
:1004E0003C852CEA822E20E0922E33FD04C090EB56
:1004F000892E90E0992E107122C09BE9980F9330BD
:1005000008F034C10F7E9FCF863611F41068A5CF56
:10051000FF2009F4A2CFFA94A0CFE7E02F2DEF152A
:1005200018F427E037E0F32E412CA2CF11118052AE
:10053000B60190E00E94A2068FEF881A980AF40193
:1005400084918111F3CFEE2009F432CFB60180E21D
:1005500090E00E94A206EA94F6CF17FF70C0480C04
:10056000FC85F4FF04C08A81813309F44A94141491
:100570000CF087C028E0241510F488E0482E85E0B0
:1005800090E017FF06C0C40197FE02C090E080E033
:10059000019601110196FF2031F02F2D30E02F5FE1
:1005A0003F4F820F931F5816190619F014F0E52CCF
:1005B000E81A812F897011F4E11068C0002329F036
:1005C000B601802F90E00E94A20613FD02C0E11048
:1005D00064C017FF7DC0840197FE02C010E000E0F8
:1005E000C401841991092C016F2D70E0EE27FF27BB
:1005F000E61BF70BFF87EE87801691060CF454C0BC
:10060000401651060CF050C0F401E01BF10BE60D52
:10061000F71D8181015011092E853F8502171307AF
:100620000CF444C0B60190E00E94A2060F3F1007F0
:1006300019F7B6018EE290E00E94A206DDCF16FD0A
:100640009ECFEF2DF0E0E815F90534F03CEF83166E
:100650003FEF93060CF010683296E60DF71D01C0CF
:10066000FA94FF2019F082918033D1F317FF87CFDE
:10067000442443944F0CF814190431F02CF0F8186A
:100680007ECF442443947BCFF12C79CFB60180E216
:1006900090E00E94A206EA948FCFB60180E390E03A
:1006A0000E94A206EA9493CF80E3B4CF801691060D
:1006B00041F49A81963350F4953319F49C8594FF54
:1006C00005C0B60190E00E94A2063DCF81E3F9CFBC
:1006D0008A81813319F0EC85EF7EEC87B60190E0DA
:1006E0000E94A206FF20A9F0B6018EE290E00E94CF
:1006F000A206F394F394E2E001E00E0FE60DF72D6D
:10070000F11D8081B60190E00E94A206E02F0F113A
:10071000F3CF85E690E014FF02C085E490E0B601D7
:100720000E94A20697FC06C081149104C1F4FC85C6
:10073000F4FF15C09194819491088DE2B60190E088
:100740000E94A20680E33AE08316910454F4B601B5
:1007500090E00E94A206B601C401C096B4CF8BE21D
:10076000EDCF8F5F2AE0821A9108EDCF8336B1F08A
:10077000833759F1833509F055C0F4018190919088
:100780005F016F2D70E006FD02C06FEF7FEFC401C7
:100790000E948C069D878C8700680DC0540182E002
:1007A000A80EB11CF4018081898321E030E03D87EF
:1007B0002C8743010F7703FD06C02C853D8552161B
:1007C000130609F090F4E52C28C0F4018190919073
:1007D0005F016F2D70E006FD02C06FEF7FEFC40177
:1007E0000E9497069D878C87E5CFB60180E290E056
:1007F0000E94A2065A94E1CFF40107FD859107FFFC
:1008000081914F01B60190E00E94A206E110EA94A6
:100810008C859D8501979D878C87EC85FD85EF2BC9
:1008200059F791CE843619F0893609F06EC0F4017B
:1008300007FF63C061917191819191915F01102FC8
:100840001F7697FF08C090958095709561957F4FB2
:100850008F4F9F4F10682AE030E0A3010E94EF06FF
:10086000882E8618982C012F16FF0AC00E7F8F1431
:1008700038F414FF04C012FD02C0012F0E7E9F2C1D
:1008800004FF85C0FE01E80DF11D8081803309F071
:1008900077C0097EF02FF870EF2E03FD87C000FFB0
:1008A00081C0F82C951410F4F50CF91804FF84C0DD
:1008B000B60180E390E00E94A20602FF09C088E72B
:1008C00090E001FF02C088E590E0B6010E94A20618
:1008D0008F1408F47DC08A94082D10E00F5F1F4F1D
:1008E000060D171DF80182918F01B60190E00E945C
:1008F000A20606151705B1F726CE619171915F0129
:10090000072E000C880B990B9ACF102F853791F486
:100910001F7E2AE030E0F40117FF2CC06191719135
:10092000819191915F01A3010E94EF06882E8618A4
:100930001F7798CF197F8F36D1F048F4883591F022
:10094000F601868197812F96E2E10C942905803784
:1009500039F08837A9F714FD146020E130E0DBCFCF
:100960001061F9CF04FD166020E132E0D4CF28E019
:1009700030E0D1CF619171915F0190E080E0D3CF01
:1009800002FD02C0939486CF9394939483CF802FDB
:10099000867809F47FCFF6CFB60180E290E00E941E
:1009A000A20693949514C0F3E12C80CFE52CE918AE
:1009B000951408F47BCFF8CF802F867809F488CF80
:1009C0008BE201FF80E207FD8DE2B60190E07ECF71
:1009D000B60180E390E00E94A206FA9479CF8FEFEF
:1009E0009FEFB1CF24E0E12C251508F074CD84E011
:1009F00064CD97FB072E16F4009407D077FD09D03D
:100A00000E94440507FC05D03EF4909581959F4FC8
:100A10000895709561957F4F08952F923F924F9260
:100A20005F926F927F928F929F92AF92BF92CF927E
:100A3000DF92EF92FF920F931F93CF93DF93CDB787
:100A4000DEB7CA1BDB0B0FB6F894DEBF0FBECDBFFF
:100A500009942A88398848885F846E847D848C84D0
:100A60009B84AA84B984C884DF80EE80FD800C81D9
:100A70001B81AA81B981CE0FD11D0FB6F894DEBFBC
:100A80000FBECDBFED010895AA1BBB1B51E107C0EE
:100A9000AA1FBB1FA617B70710F0A61BB70B881F0E
:100AA000991F5A95A9F780959095BC01CD0108959D
:100AB0008F929F92AF92BF92CF92DF92EF92FF926E
:100AC000CF93DF93EC01688179818A819B816115E5
:100AD00071058105910521F464E279ED8BE597E0DC
:100AE0002DE133EF41E050E00E944D0749015A01EA
:100AF0009B01AC01A7EAB1E40E946C076B017C0189
:100B0000ACEEB4EFA50194010E947A07DC01CB01A1
:100B10008C0D9D1DAE1DBF1DB7FF03C00197A10920
:100B2000B04888839983AA83BB839F77DF91CF9155
:100B3000FF90EF90DF90CF90BF90AF909F908F90FD
:100B400008950E945805089580E091E00E9458059C
:100B50000895B0E0A0E08093000190930101A0937C
:100B60000201B09303010895283008F027E03327ED
:100B7000DA01990F311D87FD9160009661057105BD
:100B800039F432602E5F3D9330E32A95E1F7089502
:100B90009F3F30F080387105610509F03C5F3C5F94
:100BA0003D93913008F08068911DDF93CF931F93A0
:100BB0000F93FF92EF92192F987F9695E92F9695B4
:100BC0009695E90FFF27E25FFE4F99273327EE2422
:100BD000FF24A701E70105900894079428F4360F35
:100BE000E71EF81E491F511D660F771F881F991FAA
:100BF0000694A1F70590079428F4E70EF81E491F04
:100C0000561FC11D770F881F991F661F0694A1F7F5
:100C10000590079428F4F80E491F561FC71FD11DD1
:100C2000880F991F661F771F0694A1F705900794F8
:100C300020F4490F561FC71FD81F990F661F771F33
:100C4000881F0694A9F784911095177041F0D695E6
:100C5000C79557954795F794E7941A95C1F7E4EB34
:100C6000F0E06894159015913591659195910590F6
:100C70007FE27395E118F10A430B560BC90BD009BB
:100C8000C0F7E10CF11E431F561FC91FD01D7EF493
:100C9000703311F48A95E6CFE894015030F0080FD4
:100CA0000AF40027021708F4202F2395022F7A3325
:100CB00028F079E37D932A95E9F710C07D932A9572
:100CC00089F6069497956795379517951794E118C7
:100CD000F10A430B560BC90BD00998F023957E916E
:100CE00073957A3308F070E37C932013B8F77E9104
:100CF00070617D9330F0839571E37D9370E32A9565
:100D0000E1F71124EF90FF900F911F91CF91DF91A8
:100D1000992787FD90950895FC01059061507040DA
:100D20000110D8F7809590958E0F9F1F0895FC01B4
:100D30006150704001900110D8F7809590958E0F0A
:100D40009F1F08950F931F93CF93DF93182F092FA1
:100D5000EB018B8181FD09C01FEF0FEF812F902FD9
:100D6000DF91CF911F910F91089582FF14C02E81C2
:100D70003F818C819D81281739073CF4E881F981F6
:100D8000CF0101969983888310838E819F8101967C
:100D90009F838E83E3CFE885F985812F0995892B81
:100DA000A1F3DACFB0E0A0E0E8EDF6E00C941D0589
:100DB000AE014B5F5F4FFA0161917191AF0180917C
:100DC0007A0190917B010E94AC01E2E00C9439051C
:100DD00060917A0170917B010E94A2060895FA0148
:100DE000AA27283051F1203181F1E8946F936E7F6A
:100DF0006E5F7F4F8F4F9F4FAF4FB1E03ED0B4E05B
:100E00003CD0670F781F891F9A1FA11D680F791F9B
:100E10008A1F911DA11D6A0F711D811D911DA11DAC
:100E200020D009F468943F912AE0269F11243019BC
:100E3000305D3193DEF6CF010895462F4770405D57
:100E40004193B3E00FD0C9F7F6CF462F4F70405D06
:100E50004A3318F0495D31FD4052419302D0A9F761
:100E6000EACFB4E0A6959795879577956795BA955B
:100E7000C9F700976105710508959B01AC010A2E21
:100E800006945795479537952795BA95C9F7620FF8
:100E9000731F841F951FA01D0895052E97FB1EF438
:100EA00000940E94640757FD07D00E947F0707FC4B
:100EB00003D04EF40C9464075095409530952195DD
:100EC0003F4F4F4F5F4F0895909580957095619576
:100ED0007F4F8F4F9F4F08950E94A107A59F900DB0
:100EE000B49F900DA49F800D911D11240895B7FF0C
:100EF0000C946C070E946C07821B930B0895A1E26F
:100F00001A2EAA1BBB1BFD010DC0AA1FBB1FEE1F83
:100F1000FF1FA217B307E407F50720F0A21BB30BCE
:100F2000E40BF50B661F771F881F991F1A9469F74A
:100F300060957095809590959B01AC01BD01CF01A6
:100F40000895A29FB001B39FC001A39F700D811DA2
:100F50001124911DB29F700D811D1124911D0895C2
:040F6000F894FFCF33
:100F6400010000002020207365745F6269742825E5
:100F74003038642C20256429203D20253038640A2B
:100F84000020666C69705F62697473282530386468
:100F940020202029203D20253038640A0020636C5D
:100FA4006561725F62697428253038642C20256479
:100FB40029203D20253038640A00746F67676C650A
:100FC4005F62697428253038642C20256429203D0B
:080FD40020253038640A0000FA
:00000001FF
