:100000000C94C7010C94E4010C94E4010C94E401F9
:100010000C94E4010C94E4010C94E4010C94E401CC
:100020000C94E4010C94E4010C94E4010C94E401BC
:100030000C94E4010C94E4010C94E4010C94E401AC
:100040000C94E4010C94E4010C94E4010C94E4019C
:100050000C94E4010C94E4010C94E4010C94EB087E
:100060000C94E4010C94E4010C94E4010C94E4017C
:100070000C94E4010C94E4010C94E4010C94E4016C
:100080000C94E4010C94E4010C94E4010C9435020A
:100090000C94E4010C94E4010C94E4010C94E4014C
:1000A0000C94E4010C94E4010C94E4016E616E0084
:1000B000696E660000407A10F35A00A0724E18096B
:1000C0000010A5D4E80000E87648170000E40B54BF
:1000D000020000CA9A3B000000E1F505000080968E
:1000E0009800000040420F000000A08601000000C0
:1000F000102700000000E80300000000640000007A
:1001000000000A00000000000100000000002C7642
:10011000D888DC674F0823DFC1DFAE59E1B1B7965D
:10012000E5E3E453C63AE651997696E8E6C28426BA
:10013000EB898C9B62ED407C6FFCEFBC9C9F40F296
:10014000BAA56FA5F490055A2AF75C936B6CF96712
:100150006DC11BFCE0E40D47FEF520E6B500D0EDD7
:10016000902E0300943577050080841E080000203F
:100170004E0A000000C80C333333330F986E1283DD
:100180001141EF8D2114893BE65516CFFEE6DB18B1
:10019000D1844B381BF77C1D901DA4BBE424203276
:1001A00084725E228100C9F124ECA1E53D270000A4
:1001B00000000000005F00000007000700147F142B
:1001C0007F14242A7F2A1223130864623649552299
:1001D000500005030000001C2241000041221C00C9
:1001E00014083E081408083E0808005030000008B3
:1001F00008080808006060000020100804023E5152
:1002000049453E00427F40004261514946214145F7
:100210004B311814127F1027454545393C4A49494E
:100220003001710905033649494936064949291EF5
:100230000036360000005636000008142241001433
:100240001414141400412214080201510906324901
:1002500079413E7E1111117E7F494949363E414127
:1002600041227F4141221C7F494949417F090909B7
:10027000013E4149497A7F0808087F00417F4100DB
:100280002040413F017F081422417F404040407F91
:10029000020C027F7F0408107F3E4141413E7F09EE
:1002A0000909063E4151215E7F09192946464949FF
:1002B000493101017F01013F4040403F1F20402064
:1002C0001F3F4038403F6314081463070870080755
:1002D0006151494543007F4141000204081020005C
:1002E00041417F00040201020440404040400001BF
:1002F00002040020545454787F484444383844441D
:100300004420384444487F3854545418087E090126
:10031000020C5252523E7F0804047800447D400093
:100320002040443D007F1028440000417F40007C75
:10033000041804787C0804047838444444387C1455
:10034000141408081414187C7C0804040848545435
:100350005420043F4440203C4040207C1C2040204E
:100360001C3C4030403C44281028440C5050503C29
:100370004464544C44000836410000007F000000F3
:1003800041360800100808100878464146781124C4
:100390001FBECFEFDAE0DEBFCDBF13E0A0E0B1E0DB
:1003A000E6EFFCE302C005900D92A235B107D9F744
:1003B00027E0A2E5B3E001C01D92AC39B207E1F736
:1003C0000E94A0120C94791E0C9400000F93CF93FE
:1003D000DF93C82FD62F5F934F933F932F938DECCE
:1003E00092E09F938F931F9284E18F9384E994E02E
:1003F0009F938F930E94881D8DB79EB70A960FB664
:10040000F8949EBF0FBE8DBF202F44E954E06D2F9E
:100410008C2FDF91CF910F910C9495141F93CF9354
:10042000DF93C82FD62F122F5F934F9380ED92E06A
:100430009F938F931F9284E18F9384E994E09F931D
:100440008F930E94881D8DB79EB708960FB6F894BB
:100450009EBF0FBE8DBF212F44E954E06D2F8C2F1E
:10046000DF91CF911F910C9495141F921FB61F928C
:1004700011248F939F93AF93BF9380918504811133
:1004800013C08091CF039091D003A091D103B0917C
:10049000D2030196A11DB11D8093CF039093D00389
:1004A000A093D103B093D203BF91AF919F918F914D
:1004B0001F901FBE1F90189514BC84E085BD10923C
:1004C000900083E080939100089581E080936E0016
:1004D0008093710078940895229A20982198279803
:1004E00050985198869885980895E1E6F0E080E864
:1004F000808381E080838FE30E94D3140E940315E0
:100500000E945C020E9465020C946C0281E090E003
:10051000FC01EB5BFA4F1082FC01EB52FC4F1082A6
:10052000FC01ED5AFA4F1082FC01E55AFC4F108293
:1005300001968830910561F70895AF92BF92CF92EE
:10054000EF920F931F9382E08093A2058093C503DF
:1005500087EBA82E81E0B82E9BE1C92E20E5E22E84
:1005600000E010E020E030E4B901A80183E693E068
:100570000E941C151F910F91EF90CF90BF90AF90EC
:100580000895109241051092420510924305109271
:1005900044051092CA0384E68093C60310927B033D
:1005A00010927C0310927D0310927E0380E090E015
:1005B000A8ECB2E480934E0590934F05A0935005AC
:1005C000B09351051092830510929B0310929C03E7
:1005D00010929D0310929E0382E080937A03109202
:1005E0004D059091C7022BEA929F212D112426954B
:1005F0002093780389E3989F812D11248695809319
:100600008E048093C303820F80937903820F8093BB
:100610003F0508957F928F929F92AF92BF92CF92A3
:10062000EF92FF920F931F93CF93DF93782E0E9448
:100630005A1C64E070E00E94AF1B01E0080FC72D58
:10064000D0E0FE01E957FB4F0083FE01E158FC4F6B
:100650001082CC0FDD1FCC0FDD1F9E0129593A4FB0
:100660007901F90180809180A280B38020E030E0A0
:1006700040E452E4C501B4010E94F01A1816ACF52A
:1006800020E030E040E452E4C501B4010E942419A6
:100690009B01AC0160E070E080E291E40E942419CB
:1006A0009B01AC0160E070E080E291E40E942419BB
:1006B000F70160837183828393830E945A1C9E0199
:1006C00021563C4F790163E170E00E94AF1BBC01F1
:1006D000685C7F4F072E000C880B990B0E94401A14
:1006E000F7016083718382839383013051F5FE01AA
:1006F000E959FA4F0081118122813381C156DC4FC3
:10070000488159816A817B81F5E17F9EC001112476
:10071000DEE1AD2ED1E0BD2EEAE0CE2EF8E0EF2EE8
:1007200085559B4F0E941C15DF91CF911F910F9112
:10073000FF90EF90CF90BF90AF909F908F907F9061
:1007400008950230B1F4FE01E959FA4F0081118198
:1007500022813381C156DC4F488159816A817B8176
:10076000E5E17E9EC0011124C4E1AC2EC1E0BC2EA7
:10077000D3CF0330B1F4FE01E959FA4F0081118162
:1007800022813381C156DC4F488159816A817B8146
:10079000F5E17F9EC0011124BAE0AB2EB1E0BB2E83
:1007A000BBCF043009F6FE01E959FA4F00811181EF
:1007B00022813381C156DC4F488159816A817B8116
:1007C000E5E17E9EC0011124A0E0AA2EA1E0BA2E90
:1007D000A3CF7F928F929F92AF92BF92CF92EF92D0
:1007E000FF920F931F93CF93DF93782E0E945A1C92
:1007F00064E070E00E94AF1B01E0080FC72DD0E05D
:10080000FE01E957FB4F0083FE01E158FC4F81E0F8
:100810008083CC0FDD1FCC0FDD1F9E0129593A4F7D
:100820007901F90180809180A280B38020E030E0DE
:1008300040E452E4C501B4010E94F01A1816BCF558
:1008400020E030E040E452E4C501B4010E942419E4
:100850009B01AC0160E070E080E591E40E94241906
:100860009B01AC0160E070E080E291E40E942419F9
:10087000F70160837183828393830E945A1C9E01D7
:1008800021563C4F79016091C4036351770B0E945C
:10089000AF1BBC016F5F7F4F072E000C880B990BBD
:1008A0000E94401AF7016083718382839383013031
:1008B00051F5FE01E959FA4F0081118122813381FE
:1008C000C156DC4F488159816A817B81F5E17F9E69
:1008D000C0011124D6E7AD2ED1E0BD2EEDE0CE2E25
:1008E000F0E1EF2E85559B4F0E941C15DF91CF91B3
:1008F0001F910F91FF90EF90CF90BF90AF909F907E
:100900008F907F9008950230B1F4FE01E959FA4FBB
:100910000081118122813381C156DC4F4881598188
:100920006A817B81E5E17E9EC0011124CCE5AC2E7D
:10093000C1E0BC2ED3CF0330B1F4FE01E959FA4F28
:100940000081118122813381C156DC4F4881598158
:100950006A817B81F5E17F9EC0011124B2E4AB2E58
:10096000B1E0BB2EBBCF043009F6FE01E959FA4FC6
:100970000081118122813381C156DC4F4881598128
:100980006A817B81E5E17E9EC0011124A8E2AA2E46
:10099000A1E0BA2EA3CFCF92DF92EF92FF92CF9336
:1009A000DF936091CF037091D0038091D103909138
:1009B000D203C0919400D09195000E943E1A20E08D
:1009C00030E040E857E40E94F51A6B017C01BE015B
:1009D00090E080E00E943E1A9B01AC01C701B60185
:1009E0000E94251920E030E040E852E40E94F51A08
:1009F00020E034E244EF5AE40E949619DF91CF914F
:100A0000FF90EF90DF90CF900895AF92BF92CF927A
:100A1000DF92EF92FF920F931F93CF93DF930E9489
:100A2000CB040E940F1ACB010E945F1C8BE6E82EBC
:100A300085E0F82E0FE913E0C1E0D0E0BB24B394C9
:100A400093E1C92ED12CA090C7036091D4036A19F9
:100A5000770B072E000C880B990B0E94401AF701A8
:100A600061937193819391937F01D130B1F58EE0C1
:100A70008A0D8093C703D0E08091C802882379F162
:100A80000E945A1C6091C4036351770B0E94AF1BF4
:100A9000BC016F5F7F4F072E000C880B990B0E94E3
:100AA000401AF80164837583868397838C2F0E9494
:100AB000E9031092C802CF5F0C5F1F4FC73019F6D1
:100AC0001092BD04DF91CF911F910F91FF90EF9095
:100AD000DF90CF90BF90AF900895D1E0CDCF0E942E
:100AE0005A1CB6010E94AF1BBC01685C7F4F072EE9
:100AF000000C880B990B0E94401AF80164837583DF
:100B0000868397838C2F0E940A03B092C802D3CFAA
:100B10004F925F926F927F92AF92BF92CF92EF927D
:100B20000F931F93CF936091C7026695CCEFC60FCA
:100B3000C09388056091C6026A506093AA0470E071
:100B400090E080E00E943E1A2B013C016C2F70E087
:100B500090E080E00E943E1AAB01BC018EEAA82E14
:100B600081E0B82E99E0C92E28E0E22E930182019F
:100B700086E893E00E941C158EE08093C70385E30E
:100B80008093D403CF911F910F91EF90CF90BF909E
:100B9000AF907F906F905F904F900C94050526EB7F
:100BA00032E145E455E46091410570914205809140
:100BB0004305909144050E94F01A87FD21C01092D0
:100BC0005B0510925C0510925D0510925E05109217
:100BD0004105109242051092430510924405609120
:100BE000CA0370E090E080E00E94401A20E030E00C
:100BF00040E85FE30E9425190E940F1A6093CA0320
:100C00000895CF92DF92EF92FF92C0907B03D09035
:100C10007C03E0907D03F0907E0320E030E0A901AA
:100C2000C701B6010E94F01A1816E4F42AE037ED65
:100C300043E25CE3C701B6010E94F51A9B01AC01D7
:100C400060914E0570914F0580915005909151052E
:100C50000E94241960934E0570934F0580935005B0
:100C600090935105FF90EF90DF90CF900895AF9251
:100C7000BF92CF92EF920F931F9388EE809340051F
:100C800086EF8093A80480E9A82E81E0B82E9AE030
:100C9000C92E28E1E22E00E010E026E733E440E030
:100CA00050E068E673E489E895E00E941C151F9106
:100CB0000F91EF90CF90BF90AF900895CF9326E81B
:100CC00038E34EE85FEB60914E0570914F058091DF
:100CD0005005909151050E94F51A22E538E34EED3A
:100CE00052E40E9425190E94621B0E940F1AC62F0F
:100CF0000E945A1CC53608F0C4E68C1788F40E947E
:100D00005A1C1092A80480FD0DC00E945A1C6091CC
:100D1000C4036B51770B0E94AF1B8F5F809340051C
:100D2000CF9108950E945A1C63E070E00E94AF1BAF
:100D3000885CF4CF4F925F926F927F92AF92BF9296
:100D4000CF92EF920F931F936091A804613308F044
:100D500042C08091C9038E3198F070E090E080E04D
:100D60000E94401A20917B0330917C0340917D03C7
:100D700050917E030E9425190E940F1A6093A804C7
:100D80006091A80470E090E080E00E943E1A2B0180
:100D90003C016091400570E090E080E00E943E1AC6
:100DA000AB01BC0180E9A82E81E0B82E9AE0C92EE3
:100DB00028E1E22E9301820189E895E00E941C154A
:100DC0001F910F91EF90CF90BF90AF907F906F9059
:100DD0005F904F9008950E945E06D2CF8F929F92AF
:100DE000AF92BF92CF92DF92EF92FF9280904E052A
:100DF00090904F05A0905005B090510520E030E054
:100E000040E85FE360917B0370917C0380917D03F8
:100E100090917E030E94911987FF6FC020E030E01F
:100E200048EC52E4C501B4010E94911987FF65C0E6
:100E30003091AA042091A804822F90E00A963817D6
:100E4000190611F00CF050C0321708F44DC0609133
:100E50005B0570915C0580915D0590915E05209128
:100E6000560321110BC060939E0570939F058093DC
:100E7000A0059093A10521E02093560320919E05A3
:100E800030919F054091A0055091A1050E94241921
:100E90006B017C01C092BF03D092C003E092C103FA
:100EA000F092C20320E030E0A9010E94F01A87FD11
:100EB0001BC020E030E0A901C701B6010E949119D2
:100EC000181694F020E030E040E85FE3C501B4017B
:100ED0000E94251960934E0570934F05809350052D
:100EE0009093510510925603FF90EF90DF90CF90B2
:100EF000BF90AF909F908F90089510929E05109292
:100F00009F051092A0051092A1051092BF031092A8
:100F1000C0031092C1031092C203E4CF0F9300E00C
:100F20002AE044E56AE080E00E94E71221E043ED18
:100F300052E060E08EE00E94951401E02AE044E572
:100F40006AE080E00E94E71221E04FED52E06FE09E
:100F500080E00E94951420915B0530915C054091E2
:100F60005D0550915E056FE084E20E94E60121E09C
:100F700046EE52E06EE180E00E94951440919B03A2
:100F800050919C0321E06EE184E20F910C940E02DB
:100F90008F929F92AF92BF92CF92DF92EF92FF9289
:100FA0008091660590916203891709F44AC0809385
:100FB00062038130E9F50E94CF0520E030E543EC83
:100FC00057E46091410570914205809143059091ED
:100FD00044050E94961920E830E943EF5FE30E9440
:100FE000F51A6B017C016091CA0370E090E080E02B
:100FF0000E94401A9B01AC01C701B6010E9425194D
:1010000060935B0570935C0580935D0590935E052E
:101010002A9A0E94BE120E948E070E94AB122FEFE6
:1010200089E698E1215080409040E1F700C000003F
:10103000FF90EF90DF90CF90BF90AF909F908F90F8
:1010400008950E94CF050E94CB0420914105309164
:10105000420540914305509144050E9425196B01BA
:101060007C01C0924105D0924205E0924305F09286
:1010700044056091CA0370E090E080E00E94401A4D
:101080004B015C0120E030E543EC57E4C701B601B9
:101090000E94961920E830E943EF5FE30E94F51AB9
:1010A0009B01AC01C501B4010E94251960935B0549
:1010B00070935C0580935D0590935E05B9CF0F93A7
:1010C00021E04DEE52E060E080E00E9495144091F6
:1010D000C60350E021E060E08091C3030E940E024D
:1010E0008091790321E040EF52E060E08B500E9454
:1010F000951460917B0370917C0380917D039091A6
:101100007E030E94081A3091790321E0AB0160E070
:1011100084E0830F0E940E0280913F0521E048EF9A
:1011200052E060E08B500E94951460914E057091E2
:101130004F0580915005909151050E94081A3091F9
:101140003F0521E0AB0160E083E0830F0E940E02C7
:1011500001E02AE044E56AE080E00E94E7120F9196
:10116000089583E693E00E94401521E04CEF52E0A1
:101170006EE187E00E94951421E04BE053E066E2C7
:1011800086E10C949514282F30E070E002C075952C
:1011900067954A95E2F74091C502F901EB5BFA4F7A
:1011A0009081990F6170962B94239083F901EB52F3
:1011B000FC4F80818423682B6083491305C081E044
:1011C000F901E15AFA4F8083911104C0215A3A4F34
:1011D000F901108208951F920F920FB60F921124F9
:1011E0002F933F934F935F936F937F938F939F932F
:1011F000AF93BF93EF93FF9363B140E081E00E9410
:10120000C30863B141E082E00E94C30863B147E0D4
:1012100083E00E94C30869B140E084E00E94C308F3
:1012200069B141E085E00E94C3086FB146E086E005
:101230000E94C3086FB145E087E00E94C308FF9198
:10124000EF91BF91AF919F918F917F916F915F913E
:101250004F913F912F910F900FBE0F901F901895B7
:101260000F938091C70290915303891B990B63E000
:1012700070E00E94AF1B862F6093C403962F990FD6
:1012800090933E0501E02091C602462F6AE00E943D
:10129000E71280913E052091C602482F6AE00E9425
:1012A000E7120F9108952091620590915E0329172E
:1012B00051F160917B0370917C0380917D0390914B
:1012C0007E0320935E032130F1F420E030E0A90199
:1012D0000E949119181634F52A9A20E030E040E86F
:1012E0005FE360917B0370917C0380917D0390911B
:1012F0007E030E94241960937B0370937C03809388
:101300007D0390937E0320E030E0A90160917B0390
:1013100070917C0380917D0390917E030E949119CE
:10132000181644F010927B0310927C0310927D03F8
:1013300010927E0308958F929F92AF92BF92CF92A8
:10134000DF92EF92FF926B017C010E94621B4B01C6
:101350005C0120E030E040E450E40E94911920E07C
:1013600030E048EC51E4882371F020E030E040E2C6
:1013700051E4C501B4010E949119811118C020E007
:1013800030E040E250E4C701B6010E94F51A9B012B
:10139000AC0160E070E080E490E40E9496196093F4
:1013A000CB037093CC038093CD039093CE03FF9037
:1013B000EF90DF90CF90BF90AF909F908F90089567
:1013C0008F929F92AF92BF92CF92DF92EF92FF9255
:1013D000CF9369017A018091550381115BC0CA01E5
:1013E000B9010E949B09C091640580916003C817F0
:1013F000F9F0C0936003C130D9F42A9A80907B033E
:1014000090907C03A0907D03B0907E03A501940191
:10141000C701B6010E949119811146C0C0927B0399
:10142000D0927C03E0927D03F0927E0310925403ED
:1014300080907B0390907C03A0907D03B0907E030E
:1014400080915403882331F1A5019401C701B601AD
:101450000E9491198823F1F02091CB033091CC03A5
:101460004091CD035091CE03C501B4010E942519CE
:101470009B01AC0120937B0330937C0340937D035D
:1014800050937E03C701B6010E949119181614F0FB
:1014900010925403CF91FF90EF90DF90CF90BF90C8
:1014A000AF909F908F900895C0935403A50194012D
:1014B0006091CB037091CC038091CD039091CE03CA
:1014C0000E94251960937B0370937C0380937D03B6
:1014D00090937E03ADCF4F925F926F927F92AF92C7
:1014E000BF92CF92EF920F931F93CF93809161059C
:1014F00090915D03891709F444C080935D038130A6
:1015000009F03FC02A9A6091880570E080915303EA
:1015100090E0019686179707A4F5072E000C880B1C
:10152000990B0E94401A20917B0330917C034091DB
:101530007D0350917E030E9424190E940F1AC62F2A
:10154000609388056091AA0470E090E080E00E94BA
:101550003E1A2B013C016C2F70E090E080E00E946D
:101560003E1AAB01BC018EEAA82E81E0B82E99E0AC
:10157000C92E28E0E22E9301820186E893E00E94C2
:101580001C15CF911F910F91EF90CF90BF90AF900E
:101590007F906F905F904F9008954F925F926F92FF
:1015A0007F92AF92BF92CF92EF920F931F93CF9300
:1015B0008091630590915F03891709F444C080937B
:1015C0005F03813009F03FC02A9A6091880570E07E
:1015D0008091C7028850990B68177907A4F5072EE8
:1015E000000C880B990B0E94401A20917B033091CC
:1015F0007C0340917D0350917E030E9425190E9437
:101600000F1AC62F609388056091AA0470E090E0DD
:1016100080E00E943E1A2B013C016C2F70E090E0AC
:1016200080E00E943E1AAB01BC018EEAA82E81E048
:10163000B82E99E0C92E28E0E22E9301820186E8B7
:1016400093E00E941C15CF911F910F91EF90CF90C6
:10165000BF90AF907F906F905F904F900895CF9222
:10166000DF92EF92FF92CF938091540381115CC07F
:10167000C091600580915C03C817D9F060917B032D
:1016800070917C0380917D0390917E03C0935C03F5
:10169000C13079F420E030E0A9010E949119811154
:1016A00049C010927B0310927C0310927D0310922C
:1016B0007E03C0907B03D0907C03E0907D03F0908C
:1016C0007E032DEC3CEC4CE85FE3C701B6010E94C1
:1016D00024199B01AC0160E070E080E090E40E947E
:1016E00096199B01AC0120938405309385054093A6
:1016F000860550938705809155038823A9F0C7017B
:10170000B6010E9424196B017C0120E030E0A901A0
:101710000E949119181694F4C0927B03D0927C0316
:10172000E0927D03F0927E03CF91FF90EF90DF90E7
:10173000CF9008952A9AC0935503BBCF10927B0394
:1017400010927C0310927D0310927E031092550339
:10175000EBCF8F929F92AF92BF92CF92DF92EF9298
:10176000FF926B017C010E94621B4B015C0120E037
:1017700030E040E450E40E94F01A87FD30C020E0E1
:1017800030E040E651E4C701B6010E94F51A9B0122
:10179000AC0160E070E080E490E40E9496196093F0
:1017A000840570938505809386059093870520E0D6
:1017B00030E040E951E4C701B6010E94F51A9B01EF
:1017C000AC0160E070E080E490E40E9496196093C0
:1017D000CB037093CC038093CD039093CE0320E092
:1017E00030E040E251E4C501B4010E94F01A87FDE7
:1017F00030C02DEC3CEC4CEC5FE3C701B6010E941D
:10180000F51A9B01AC0160E070E080E490E40E9476
:10181000961960938405709385058093860590934F
:10182000870520E030E040E850E4C701B6010E949F
:10183000F51A9B01AC0160E070E080E090E40E944A
:1018400096196093CB037093CC038093CD03909350
:10185000CE03FF90EF90DF90CF90BF90AF909F901E
:101860008F900895CF92DF92EF92FF928091600562
:1018700090916205892B90916405892B09F075C0C0
:1018800080915503811171C08091540381116DC005
:10189000CA01B9010E94A90B80914D05843108F459
:1018A00087C0C0907B03D0907C03E0907D03F090D4
:1018B0007E0320E030E040E85FE3C701B6010E940C
:1018C000F01A1816D4F4C701B6010E94621B20E07A
:1018D00030E040E85FE30E94911981114BC080E045
:1018E00090E0A0E8BFE380937B0390937C03A093F8
:1018F0007D03B0937E0310924D05C0907B03D09082
:101900007C03E0907D03F0907E0320E030E0A901AD
:10191000C701B6010E94F01A87FD27C020E030E021
:1019200040E85FE3C701B6010E9491191816ECF078
:101930002091CB033091CC034091CD035091CE0345
:10194000C701B6010E9425196B017C0120E030E03F
:10195000A9010E94911987FD22C0C0927B03D092F9
:101960007C03E0927D03F0927E03FF90EF90DF9086
:10197000CF9008952091840530918505409186058A
:1019800050918705C701B6010E94241960937B031B
:1019900070937C0380937D0390937E03AECF10926F
:1019A0007B0310927C0310927D0310927E03DDCFA7
:1019B0008F5F80934D05D9CF8F929F92AF92BF9248
:1019C000CF92DF92EF92FF9269017A01882309F4A6
:1019D00086C0662309F483C080907B0390907C03CB
:1019E000A0907D03B0907E0320E030E0A901C50106
:1019F000B4010E94F01A87FF09C0A7019601C50132
:101A0000B4010E94911918160CF469C0A70196013F
:101A100061E081E00E945309A701960161E081E045
:101A20000E942F0BA701960161E081E00E94E0096E
:101A3000A701960161E081E00E94320C20E030E0D5
:101A4000A90160917B0370917C0380917D0390914B
:101A50007E030E949119811108C010927B0310929D
:101A60007C0310927D0310927E0380907B03909004
:101A70007C03A0907D03B0907E03A5019401C70173
:101A8000B6010E94911987FF2AC020E030E040E8AB
:101A90005FE3C701B6010E9425199B01AC01C50196
:101AA000B4010E94F01A18161CF520E030E040E462
:101AB00050E4C701B6010E949119811119C020E0BC
:101AC00030E040E85FE3C501B4010E94241960934F
:101AD0007B0370937C0380937D0390937E03FF9040
:101AE000EF90DF90CF90BF90AF909F908F90089530
:101AF000C0927B03D0927C03E0927D03F0927E0340
:101B00002A98EDCF8091650590916103891749F07E
:101B100080936103813029F480935A038093850474
:101B20002A9A8091660590916203891749F0809303
:101B30006203813029F480935A03809385042A9AA2
:101B40000E94B1082A980895CF92DF92EF92FF92F7
:101B50002091880580913E058750990B61E02817F8
:101B600019060CF060E081E09091C403921708F030
:101B700080E020E030E040E251E40E94DC0C9091F3
:101B8000880561E08091C403891708F460E081E072
:101B900020915303921708F480E020E030E040E405
:101BA00050E40E94DC0C2091880530E08091C7024F
:101BB0008750990B61E0281739070CF060E04091DD
:101BC0003E054750550B81E0241735070CF480E0A3
:101BD00020E030E040E450E40E94DC0CC0907B0345
:101BE000D0907C03E0907D03F0907E0360918305AC
:101BF00070E090E080E00E94401AA70196010E94E8
:101C000025190E940F1A609383056623E1F020E0F6
:101C100030E0A901C701B6010E94F01A18169CF421
:101C200080919B0390919C03A0919D03B0919E0392
:101C30000196A11DB11D80939B0390939C03A093DB
:101C40009D03B0939E03FF90EF90DF90CF90089597
:101C50008F929F92AF92BF92CF92EF92FF920F938B
:101C60001F93CF93DF93F82EC82FD0E08091C90344
:101C70008E31D8F08E01000F111F000F111F09596E
:101C80001A4F20917B0330917C0340917D0350914A
:101C90007E03F80160817181828193810E94251900
:101CA000F8016083718382839383CE0189579B4FB0
:101CB0004C01FC018081813019F5CE01880F991FFC
:101CC000880F991FFC01E959FA4F00811181228187
:101CD000338181569C4FFC01408151816281738127
:101CE000F5E1FF9EC0011124EEE1AE2EE1E0BE2E33
:101CF000FAE0CF2EA8E0EA2E85559B4F0E941C15D6
:101D0000F4018081823019F5CE01880F991F880F68
:101D1000991FFC01E959FA4F008111812281338119
:101D200081569C4FFC014081518162817381F5E1B4
:101D3000FF9EC0011124E4E1AE2EE1E0BE2EFAE0E8
:101D4000CF2EA8E0EA2E85559B4F0E941C15F4016A
:101D50008081833019F5CE01880F991F880F991F54
:101D6000FC01E959FA4F00811181228133818156AA
:101D70009C4FFC014081518162817381F5E1FF9E9E
:101D8000C0011124EAE0AE2EE1E0BE2EFAE0CF2E33
:101D9000A8E0EA2E85559B4F0E941C15F401808116
:101DA000843009F5CC0FDD1FCC0FDD1FFE01E95992
:101DB000FA4F0081118122813381C156DC4F488165
:101DC00059816A817B81F5E1FF9EC0011124E0E029
:101DD000AE2EE1E0BE2EFAE0CF2EA8E0EA2E855529
:101DE0009B4F0E941C15DF91CF911F910F91FF9087
:101DF000EF90CF90BF90AF909F908F9008958F926B
:101E00009F92AF92BF92CF92EF92FF920F931F9348
:101E1000CF93DF93F82EC82FD0E08091A3058E31A9
:101E2000D8F08E01000F111F000F111F09591A4F12
:101E300020917B0330917C0340917D0350917E0380
:101E4000F80160817181828193810E942519F801D6
:101E50006083718382839383CE0189579B4F4C01AA
:101E6000FC018081813019F5CE01880F991F880F00
:101E7000991FFC01E959FA4F0081118122813381B8
:101E800081569C4FFC014081518162817381F5E153
:101E9000FF9EC0011124E6E7AE2EE1E0BE2EFDE07C
:101EA000CF2EA0E1EA2E85559B4F0E941C15F40110
:101EB0008081823019F5CE01880F991F880F991FF4
:101EC000FC01E959FA4F0081118122813381815649
:101ED0009C4FFC014081518162817381F5E1FF9E3D
:101EE000C0011124ECE5AE2EE1E0BE2EFDE0CF2EC8
:101EF000A0E1EA2E85559B4F0E941C15F4018081BC
:101F0000833019F5CE01880F991F880F991FFC01A6
:101F1000E959FA4F008111812281338181569C4F0A
:101F2000FC014081518162817381F5E1FF9EC00116
:101F30001124E2E4AE2EE1E0BE2EFDE0CF2EA0E1C2
:101F4000EA2E85559B4F0E941C15F4018081843038
:101F500009F5CC0FDD1FCC0FDD1FFE01E959FA4F4B
:101F60000081118122813381C156DC4F4881598122
:101F70006A817B81F5E1FF9EC0011124E8E2AE2E6B
:101F8000E1E0BE2EFDE0CF2EA0E1EA2E85559B4F6D
:101F90000E941C15DF91CF911F910F91FF90EF9040
:101FA000CF90BF90AF909F908F900895CF92DF9287
:101FB000EF92FF92CF936091C903C091A3056E3158
:101FC00060F0CE3150F01092C9031092A305CF916A
:101FD000FF90EF90DF90CF900895C0907B03D0905A
:101FE0007C03E0907D03F0907E0370E090E080E061
:101FF0000E94401AA70196010E9425190E940F1AFB
:102000006093C9036C2F70E090E080E00E94401A5A
:10201000A70196010E9425190E940F1A6093A3053B
:10202000D6CFEF92FF920F931F93CF9320E030E033
:10203000A90160917B0370917C0380917D03909155
:102040007E030E94F01A18160CF046C080E8E82EB5
:1020500083E0F82E07E615E0C1E0F70181917F01EA
:10206000882389F020E030E040E452E4F801648104
:102070007581868197810E94F01A18164CF18C2F79
:102080000E94FF0E15C020E030E040E452E4F80169
:1020900064817581868197810E94F01A1816A4F4D4
:1020A0008C2F0E940A03F701319780818111DACFCA
:1020B000CF5F0C5F1F4FC73081F6CF911F910F91FB
:1020C000FF90EF900C94D60F8C2F0E94280EEBCF30
:1020D0008C2F0E94E903ECCFCF911F910F91FF90BD
:1020E000EF9008950C9411100E94111080EC94E070
:1020F0000E94401585ED94E00E9440158AEE94E020
:102100000E9440158FEF94E00E94401584E195E015
:102110000E94401589E295E00E94401581E080937D
:10212000BD0408950F93CF93C0E000E02C2F44E549
:102130006C2F80E00E94E712CF5FCA30B1F7CF91D9
:102140000F910895CF92DF92EF92FF920F931F931A
:10215000CF93DF93D090AA041091880598E0C92E00
:10216000CD0CC82FD0E07E01EE0CFF1CEE0CFF1C46
:10217000F701E959FA4F60817181828193810E9450
:102180000F1A062FF701E156FC4F608171818281A1
:1021900093810E940F1AC158DC4F8881811118C0A9
:1021A00097E0960F89E0800FC01640F08D1530F053
:1021B000911720F0195F81E0161708F480E0DF9195
:1021C000CF911F910F91FF90EF90DF90CF900895E6
:1021D0009FE0960F8CE0E7CF3091AA0480918805AC
:1021E0009091A8042091400548E0430F491760F002
:1021F000975F931748F097E1920F981728F097E0B0
:10220000980F81E0921708F480E008954F925F9252
:102210006F927F92AF92BF92CF92EF920F931F93E4
:10222000CF93DF93C091C702C695C450D1E08D2FE4
:102230000E94A210882379F08091C6038451809374
:10224000C60310927B0310927C0310927D031092C0
:102250007E03C0938805DF5FD73049F70E94EC10FA
:1022600081111092C6036091AA0470E090E080E0B2
:102270000E943E1A2B013C016091880570E090E0BD
:1022800080E00E943E1AAB01BC018EEAA82E81E0DC
:10229000B82E99E0C92E28E0E22E9301820186E84B
:1022A00093E00E941C15DF91CF911F910F91EF9049
:1022B000CF90BF90AF907F906F905F904F900895B8
:1022C0000E94C8070E94010620E030E0A901609149
:1022D0007B0370917C0380917D0390917E030E942B
:1022E000F01A181624F40E946B0A0E94CD0A0E946C
:1022F00074100E949A0689E895E00E9440150E9499
:10230000EE060E9406110E9492100E94A40D0E94E7
:1023100030090E945F0886E893E00E9440152A98E1
:1023200008958091C603882379F020E030E0A90168
:1023300060914E0570914F05809150059091510527
:102340000E94911918162CF081E080935903109285
:102350008F048091CA03843068F480919B0390912C
:102360009C03A0919D03B0919E0380369940A105E6
:10237000B10528F081E08093590380938F0408957C
:102380000F9380918F04811146C021E044E153E016
:1023900060E08EE00E94951401E028E044E568E0EA
:1023A00080E00E94E71221E04FED52E06AE080E019
:1023B0000E94951420915B0530915C0540915D056C
:1023C00050915E056AE084E20E94E60121E046EE5B
:1023D00052E063E180E00E94951440919B0350918C
:1023E0009C0321E063E184E20E940E022BE144E5BC
:1023F0006BE180E00E94E71221E04CE253E06DE1E6
:102400008EE00E94951421E048E353E065E284E009
:102410000F910C94951421E040E253E060E08EE0CF
:102420000E94951480918F048111B6CFAECF0F9387
:102430001F93CF93DF93C5E6D5E001E613E08991C2
:10244000F80191918F01891759F03197808380911C
:102450006605813029F4809358038093A9042A9A51
:1024600080916505813069F4809358032A9AF5E0DC
:10247000C736DF0721F72A98DF91CF911F910F917F
:1024800008950E94C011F3CF80915A0381110895DD
:102490000E94BE120E94820D0E94AB12F5CF809165
:1024A0005903811108950E94BE120E9460110E947A
:1024B00091110E94AB12F3CF8091580381110895BE
:1024C0000E94BE120E9417120E94AB12F5CF0E940A
:1024D000BE120E94AB1210925A031092590310922E
:1024E000580308958091A904811108950E949D02C6
:1024F0000E94C1020E9488050E9437060E94441271
:102500000E944F120E945C120E946712EBCF2A9821
:102510000E94BE1221E048E453E061E083E10E94A2
:1025200095140E94AB122FEF8DE399E42150804067
:102530009040E1F700C000000E94BE120C94AB1264
:102540000E9475020E9486020E9472120E948712E7
:1025500090E080E00895CF93DF9360E080E00E94F8
:102560001015C4EAD5E0699181E00E94B51487E0B6
:10257000CC39D807C1F7DF91CF910895E4EAF5E0AF
:10258000119287E0EC39F807D9F708958435D8F42B
:102590006033C8F4962F969596959695E82FF0E0BF
:1025A00084E5989FE00DF11D1124EC55FA4F208130
:1025B000677081E090E001C0880F6A95EAF74423D4
:1025C00019F0822B8083089580958223FBCF2F9270
:1025D0003F924F925F926F927F928F929F92AF92B3
:1025E000BF92CF92DF92EF92FF920F931F93CF9300
:1025F000DF93CDB7DEB72E970FB6F894DEBF0FBED0
:10260000CDBF89836B83242E122F841330C0E62E16
:10261000F12CC22ED12C2B812117E8F4CE14DF042B
:102620000CF01FC12E960FB6F894DEBF0FBECDBFC3
:10263000DF91CF911F910F91FF90EF90DF90CF909E
:10264000BF90AF909F908F907F906F905F904F90D2
:102650003F902F900895EC14FD0424F3402F6E2D2D
:1026600089810E94C61221E0E21AF108D4CF3B8191
:10267000321320C08981E82EF12CC42ED12C9981EF
:10268000921560F4CE14DF046CF2402F6B818E2D16
:102690000E94C6123FEFE31AF30AF1CFEC14FD04D7
:1026A0000CF2402F6B818E2D0E94C61281E0E81A39
:1026B000F108E5CF2981421728F0812F1B818B83F8
:1026C000222E49839981892F90E09A838983312C26
:1026D000BC0162197309072E000C880B990B0E942C
:1026E000401A6D837E838F8398873B81232F30E050
:1026F0003C832B83812F90E09E878D87B901681BD7
:10270000790B072E000C880B990B0E94401A4B0185
:102710005C012D813E814F8158850E9496192B01C5
:102720003C0120E030E0A9010E94F01A87FF04C0BC
:1027300077FA709477F87094C12CD12C760120E050
:1027400030E0A9016D817E818F8198850E94F01A09
:1027500018160CF07FC029813A81221533050CF43C
:1027600061CF122D402F6D85822D0E94C612A301CC
:102770009201C701B6010E9425196B017C0120E07E
:1027800030E040E05FE30E94F01A87FD10C020E0D7
:1027900030E0A901C501B4010E94F01A1816BCF47A
:1027A0008B819C812D853E8582179307BCF420E0A8
:1027B00030E0A9016D817E818F8198850E94F01A99
:1027C00018160CF043C03FEF231A330AB8CF8B81A1
:1027D0009C812D853E85281739074CF3402F6D8548
:1027E000812F0E94C61221E030E03A87298720E03D
:1027F00030E0A901C501B4010E94F01A181614F0C6
:102800001A86198681E090E09C878B8720E030E073
:10281000A901C501B4010E94911987FD02C01C865F
:102820001B8689859A852B853C85821B930B2D857C
:102830003E85280F391F3E872D8720E030E040E895
:102840005FE3C701B6010E94241997CF81E0281ADF
:10285000310875CF89819A81281639060CF081CF0D
:10286000E1CE402F6E2D89810E94C6129FEFE91A9A
:10287000F90AD1CE7F928F929F92AF92BF92CF9260
:10288000DF92EF92FF920F931F93CF93DF93982ED7
:10289000862E722E4052550B25E0249FC001259FA5
:1028A000900D1124F12CE12C9C0122553E4F690121
:1028B000AA24A394B12CF601EE0DFF1DE491711032
:1028C00001C0E09510E000E0CE2FD0E0A501002E81
:1028D00002C0440F551F0A94E2F74C235D23002EDB
:1028E00002C0559547950A94E2F7682D600F892D2F
:1028F0000E94C6120F5F1F4F0830110539F73FEFD6
:10290000E31AF30A939485E0E816F104A1F6DF9147
:10291000CF911F910F91FF90EF90DF90CF90BF90DC
:10292000AF909F908F907F900895EF92FF920F93BA
:102930001F93CF93DF93D82FF62E8A01E22EC0E0AB
:10294000F801EC0FF11D4081411107C0DF91CF91DB
:102950001F910F91FF90EF9008952E2D6F2D8D2FC9
:102960000E943A14DB5FCF5FEBCF95B19F7D40E2D1
:10297000849F90011124922B95B95F9887E090E095
:1029800070E08F989B01082E02C0359527950A9418
:10299000E2F720FF06C02E9A8F9A019790F75F9A70
:1029A00008952E98F9CFCF93C82F579A249A259A35
:1029B000269A879A2C985F9A2C9A61E280E00E946E
:1029C000B5146C2F606880E00E94B51464E080E06C
:1029D0000E94B51463E180E00E94B5146CE080E0D1
:1029E0000E94B51460E280E00E94B5146CE080E0C3
:1029F0000E94B51460E480E00E94B51460E880E0B5
:102A0000CF910C94B514CF93DF93C8EFD1E060E081
:102A100081E00E94B5142197D1F7DF91CF910895FD
:102A2000CF93C82F606480E00E94B5146C2F60685B
:102A300080E0CF910C94B514AF92BF92CF92EF92F9
:102A40000F931F93FC01408351836283738304833C
:102A5000158326833783E08AC18AB48AA38A81E0FA
:102A6000828B10861186128613861486158616862A
:102A700017861F910F91EF90CF90BF90AF90089560
:102A80007F928F929F92AF92BF92CF92DF92EF92FE
:102A9000FF920F931F93CF93DF938C01DC0152962B
:102AA0008C915297882309F474C06D917D918D911A
:102AB0009C910E94621B0E94081A6B015B01F80145
:102AC00064817581868197810E94621BF4E5CF162F
:102AD000D1040CF05EC0D8015096CC91D0E0CC0E61
:102AE000DD1E1C141D040CF054C00E94081A603333
:102AF00071050CF04EC0F801218930E0260F371F18
:102B0000121613060CF045C0279633E0D595C795ED
:102B10003A95E1F7762E912C812CD12CC12CD8013D
:102B200051968C918C151D04A1F19CF1F12CE12C96
:102B300023C0C70123E0959587952A95E1F7D80131
:102B40005396ED91FC91E80DF91DE80FF91F4081B6
:102B500050E0C701809590958770992702C05595E0
:102B600047958A95E2F74170672D8A2D8E0D0E9458
:102B7000C612BFEFEB1AFB0AF80180898E151F04FD
:102B800009F0BCF6FFEFCF1ADF0A8C0E9D1E73947E
:102B9000C6CFDF91CF911F910F91FF90EF90DF9003
:102BA000CF90BF90AF909F908F907F900895AFE0AF
:102BB000B0E0EDEDF5E10C94C31B6C011B014A0183
:102BC000FC0117821682838181FF34C39E012F5F2F
:102BD0003F4F3901F6019381F10193FD859193FFF8
:102BE00081911F01882309F4D6C2853239F493FDFF
:102BF000859193FF81911F01853239F4B60190E0F0
:102C00000E94581D54014501E5CFF12C512C00E0E4
:102C1000003238F48B3209F190F48032F9F08332CB
:102C200009F107FD34C020ED280F2A3020F506FFFA
:102C30001BC0FAE0FF9E200D1124F22E05C08D323C
:102C400079F0803371F70160F10193FD859193FF75
:102C500081911F018111DCCF1AC002600460F4CFA2
:102C60000860F2CF0061F0CF3AE0539E200D1124AE
:102C7000522E0062E9CF8E3221F406FD8CC2006430
:102C8000E3CF8C3611F40068DFCF8836E9F29BEB96
:102C9000980F933008F05CC00061805E06FD02C0B2
:102CA00046E0F42E102F1F73853609F058C01064CB
:102CB00017FF5EC08F2D9BE39F1508F48BE3442420
:102CC0004394480E27E0F4016191719181919191B3
:102CD0005F01042DA3010E946A1C4C01F981FC874D
:102CE000F0FF03C00DE2F3FF07C00BE211FD04C0CB
:102CF000012F047012FD00E22C852C70E22E09F4E5
:102D000057C001119AC2F3E0E12CF515A0F483E05D
:102D1000E52CE81A13FD08C0B60180E290E00E949D
:102D2000581DEA94E110F8CF002329F0B601802F56
:102D300090E00E94581D3C852CEA822E20E0922EC5
:102D400033FD04C090EB892E90E0992E107122C0C3
:102D50009BE9980F933008F034C10F7E9FCF8636E1
:102D600011F41068A5CFFF2009F4A2CFFA94A0CFE8
:102D7000E7E02F2DEF1518F427E037E0F32E412C74
:102D8000A2CF11118052B60190E00E94581D8FEF22
:102D9000881A980AF40184918111F3CFEE2009F486
:102DA00032CFB60180E290E00E94581DEA94F6CF3F
:102DB00017FF70C0480CFC85F4FF04C08A81813382
:102DC00009F44A9414140CF087C028E0241510F478
:102DD00088E0482E85E090E017FF06C0C40197FE0A
:102DE00002C090E080E0019601110196FF2031F0D1
:102DF0002F2D30E02F5F3F4F820F931F581619067B
:102E000019F014F0E52CE81A812F897011F4E11003
:102E100068C0002329F0B601802F90E00E94581D61
:102E200013FD02C0E11064C017FF7DC0840197FE4E
:102E300002C010E000E0C401841991092C016F2D3B
:102E400070E0EE27FF27E61BF70BFF87EE87801663
:102E500091060CF454C0401651060CF050C0F40119
:102E6000E01BF10BE60DF71D8181015011092E8544
:102E70003F85021713070CF444C0B60190E00E948E
:102E8000581D0F3F100719F7B6018EE290E00E941F
:102E9000581DDDCF16FD9ECFEF2DF0E0E815F905AA
:102EA00034F03CEF83163FEF93060CF01068329637
:102EB000E60DF71D01C0FA94FF2019F082918033CE
:102EC000D1F317FF87CF442443944F0CF81419040F
:102ED00031F02CF0F8187ECF442443947BCFF12CB2
:102EE00079CFB60180E290E00E94581DEA948FCF1E
:102EF000B60180E390E00E94581DEA9493CF80E3EE
:102F0000B4CF8016910641F49A81963350F49533EC
:102F100019F49C8594FF05C0B60190E00E94581DED
:102F20003DCF81E3F9CF8A81813319F0EC85EF7EC3
:102F3000EC87B60190E00E94581DFF20A9F0B60171
:102F40008EE290E00E94581DF394F394E2E001E0D9
:102F50000E0FE60DF72DF11D8081B60190E00E9465
:102F6000581DE02F0F11F3CF85E690E014FF02C04B
:102F700085E490E0B6010E94581D97FC06C08114BC
:102F80009104C1F4FC85F4FF15C0919481949108DB
:102F90008DE2B60190E00E94581D80E33AE083166E
:102FA000910454F4B60190E00E94581DB601C4018A
:102FB000C096B4CF8BE2EDCF8F5F2AE0821A9108E2
:102FC000EDCF8336B1F0833759F1833509F055C021
:102FD000F401819091905F016F2D70E006FD02C0B9
:102FE0006FEF7FEFC4010E94421D9D878C870068B0
:102FF0000DC0540182E0A80EB11CF40180818983C8
:1030000021E030E03D872C8743010F7703FD06C0A8
:103010002C853D855216130609F090F4E52C28C046
:10302000F401819091905F016F2D70E006FD02C068
:103030006FEF7FEFC4010E944D1D9D878C87E5CF08
:10304000B60180E290E00E94581D5A94E1CFF4014D
:1030500007FD859107FF81914F01B60190E00E9425
:10306000581DE110EA948C859D8501979D878C877A
:10307000EC85FD85EF2B59F791CE843619F0893612
:1030800009F06EC0F40107FF63C0619171918191F5
:1030900091915F01102F1F7697FF08C09095809542
:1030A000709561957F4F8F4F9F4F10682AE030E0F9
:1030B000A3010E94B81D882E8618982C012F16FF98
:1030C0000AC00E7F8F1438F414FF04C012FD02C032
:1030D000012F0E7E9F2C04FF85C0FE01E80DF11D1F
:1030E0008081803309F077C0097EF02FF870EF2ED1
:1030F00003FD87C000FF81C0F82C951410F4F50C77
:10310000F91804FF84C0B60180E390E00E94581DC6
:1031100002FF09C088E790E001FF02C088E590E067
:10312000B6010E94581D8F1408F47DC08A94082DA2
:1031300010E00F5F1F4F060D171DF80182918F01E0
:10314000B60190E00E94581D06151705B1F726CE6E
:10315000619171915F01072E000C880B990B9ACF3A
:10316000102F853791F41F7E2AE030E0F40117FF1D
:103170002CC061917191819191915F01A3010E9495
:10318000B81D882E86181F7798CF197F8F36D1F0FB
:1031900048F4883591F0F601868197812F96E2E117
:1031A0000C94DF1B803739F08837A9F714FD1460C1
:1031B00020E130E0DBCF1061F9CF04FD166020E1A3
:1031C00032E0D4CF28E030E0D1CF619171915F013E
:1031D00090E080E0D3CF02FD02C0939486CF939419
:1031E000939483CF802F867809F47FCFF6CFB601F2
:1031F00080E290E00E94581D93949514C0F3E12C56
:1032000080CFE52CE918951408F47BCFF8CF802FF8
:10321000867809F488CF8BE201FF80E207FD8DE21A
:10322000B60190E07ECFB60180E390E00E94581D89
:10323000FA9479CF8FEF9FEFB1CF24E0E12C2515E1
:1032400008F074CD84E064CD5058BB27AA270E94B3
:103250003C190C94B61A0E94A81A38F00E94AF1AB2
:1032600020F039F49F3F19F426F40C94A51A0EF4BB
:10327000E095E7FB0C949F1AE92F0E94C71A58F3B8
:10328000BA17620773078407950720F079F4A6F54B
:103290000C94E91A0EF4E0950B2EBA2FA02D0B0119
:1032A000B90190010C01CA01A0011124FF27591B8B
:1032B00099F0593F50F4503E68F11A16F040A22F91
:1032C000232F342F4427585FF3CF46953795279502
:1032D000A795F0405395C9F77EF41F16BA0B620B01
:1032E000730B840BBAF09150A1F0FF0FBB1F661F48
:1032F000771F881FC2F70EC0BA0F621F731F841F8B
:1033000048F4879577956795B795F7959E3F08F0B0
:10331000B0CF9395880F08F09927EE0F9795879572
:1033200008950E947B1A08F481E008950E94AA196A
:103330000C94B61A0E94AF1A58F00E94A81A40F0D6
:1033400029F45F3F29F00C949F1A51110C94EA1A4A
:103350000C94A51A0E94C71A68F39923B1F3552358
:1033600091F3951B550BBB27AA2762177307840798
:1033700038F09F5F5F4F220F331F441FAA1FA9F32E
:1033800035D00E2E3AF0E0E832D091505040E6951C
:10339000001CCAF72BD0FE2F29D0660F771F881F7D
:1033A000BB1F261737074807AB07B0E809F0BB0B70
:1033B000802DBF01FF2793585F4F3AF09E3F510584
:1033C00078F00C949F1A0C94EA1A5F3FE4F3983E4D
:1033D000D4F3869577956795B795F7959F5FC9F76D
:1033E000880F911D9695879597F90895E1E0660FEE
:1033F000771F881FBB1F621773078407BA0720F067
:10340000621B730B840BBA0BEE1F88F7E0950895CF
:103410000E940F1A6894B1110C94EA1A08950E9440
:10342000CF1A88F09F5798F0B92F9927B751B0F06D
:10343000E1F0660F771F881F991F1AF0BA95C9F738
:1034400014C0B13091F00E94E91AB1E008950C94D3
:10345000E91A672F782F8827B85F39F0B93FCCF386
:10346000869577956795B395D9F73EF490958095B5
:10347000709561957F4F8F4F9F4F0895E89409C0D5
:1034800097FB3EF490958095709561957F4F8F4F97
:103490009F4F9923A9F0F92F96E9BB279395F695AD
:1034A000879577956795B795F111F8CFFAF4BB0F2B
:1034B00011F460FF1BC06F5F7F4F8F4F9F4F16C08F
:1034C000882311F096E911C0772321F09EE8872F19
:1034D000762F05C0662371F096E8862F70E060E0D5
:1034E0002AF09A95660F771F881FDAF7880F96954E
:1034F000879597F90895990F0008550FAA0BE0E8F2
:10350000FEEF16161706E807F907C0F012161306A5
:10351000E407F50798F0621B730B840B950B39F4E5
:103520000A2661F0232B242B252B21F408950A264B
:1035300009F4A140A6958FEF811D811D089597F98B
:103540009F6780E870E060E008959FEF80EC089549
:1035500000240A9416161706180609060895002472
:103560000A9412161306140605060895092E0394EC
:10357000000C11F4882352F0BB0F40F4BF2B11F460
:1035800060FF04C06F5F7F4F8F4F9F4F089557FDBF
:103590009058440F551F59F05F3F71F04795880FC1
:1035A00097FB991F61F09F3F79F087950895121658
:1035B00013061406551FF2CF4695F1DF08C0161604
:1035C00017061806991FF1CF8695710561050894B5
:1035D0000895E894BB2766277727CB0197F90895CC
:1035E0000E947B1A08F48FEF08950E94081B0C9428
:1035F000B61A0E94A81A38F00E94AF1A20F095233C
:1036000011F00C949F1A0C94A51A11240C94EA1A28
:103610000E94C71A70F3959FC1F3950F50E0551F94
:10362000629FF001729FBB27F00DB11D639FAA2717
:10363000F00DB11DAA1F649F6627B00DA11D661F66
:10364000829F2227B00DA11D621F739FB00DA11D87
:10365000621F839FA00D611D221F749F3327A00D41
:10366000611D231F849F600D211D822F762F6A2FDD
:1036700011249F5750409AF0F1F088234AF0EE0F42
:10368000FF1FBB1F661F771F881F91505040A9F76F
:103690009E3F510580F00C949F1A0C94EA1A5F3FEC
:1036A000E4F3983ED4F3869577956795B795F795AB
:1036B000E7959F5FC1F7FE2B880F911D9695879523
:1036C00097F908950E94CF1AE8F09E37E8F09639EE
:1036D000B8F49E3848F4672F782F8827985FF9CF81
:1036E00086957795679593959539D0F3B62FB170F8
:1036F0006B0F711D811D20F48795779567959395C4
:103700000C94861B0C94A11B0C94EA1A882371F468
:10371000772321F09850872B762F07C0662311F46A
:1037200099270DC09051862B70E060E02AF09A95A1
:10373000660F771F881FDAF7880F9695879597F998
:1037400008959F3F31F0915020F4879577956795C4
:10375000B795880F911D9695879597F9089597FBD2
:10376000072E16F4009407D077FD09D00E94FA1BAB
:1037700007FC05D03EF4909581959F4F0895709574
:1037800061957F4F08952F923F924F925F926F9273
:103790007F928F929F92AF92BF92CF92DF92EF92E1
:1037A000FF920F931F93CF93DF93CDB7DEB7CA1B62
:1037B000DB0B0FB6F894DEBF0FBECDBF09942A888D
:1037C000398848885F846E847D848C849B84AA8435
:1037D000B984C884DF80EE80FD800C811B81AA81C2
:1037E000B981CE0FD11D0FB6F894DEBF0FBECDBF8D
:1037F000ED010895AA1BBB1B51E107C0AA1FBB1F07
:10380000A617B70710F0A61BB70B881F991F5A956C
:10381000A9F780959095BC01CD0108958F929F9254
:10382000AF92BF92CF92DF92EF92FF92CF93DF934E
:10383000EC01688179818A819B816115710581051F
:10384000910521F464E279ED8BE597E02DE133EF0A
:1038500041E050E00E94161E49015A019B01AC0153
:10386000A7EAB1E40E94351E6B017C01ACEEB4EF17
:10387000A50194010E94431EDC01CB018C0D9D1D0E
:10388000AE1DBF1DB7FF03C00197A109B0488883D3
:103890009983AA83BB839F77DF91CF91FF90EF90AD
:1038A000DF90CF90BF90AF909F908F9008950E942F
:1038B0000E1C089589EC92E00E940E1C0895B0E061
:1038C000A0E08093C9029093CA02A093CB02B09368
:1038D000CC020895283008F027E03327DA01990F49
:1038E000311D87FD916000966105710539F43260E4
:1038F0002E5F3D9330E32A95E1F708959F3F30F026
:1039000080387105610509F03C5F3C5F3D93913063
:1039100008F08068911DDF93CF931F930F93FF9260
:10392000EF92192F987F9695E92F96959695E90F26
:10393000FF27E25FFE4F99273327EE24FF24A701DC
:10394000E70105900894079428F4360FE71EF81E47
:10395000491F511D660F771F881F991F0694A1F7F5
:103960000590079428F4E70EF81E491F561FC11D45
:10397000770F881F991F661F0694A1F7059007947B
:1039800028F4F80E491F561FC71FD11D880F991F15
:10399000661F771F0694A1F70590079420F4490F3E
:1039A000561FC71FD81F990F661F771F881F0694C1
:1039B000A9F784911095177041F0D695C795579542
:1039C0004795F794E7941A95C1F7E4EBF0E0689413
:1039D0001590159135916591959105907FE27395BC
:1039E000E118F10A430B560BC90BD009C0F7E10CE3
:1039F000F11E431F561FC91FD01D7EF4703311F4F2
:103A00008A95E6CFE894015030F0080F0AF40027B9
:103A1000021708F4202F2395022F7A3328F079E338
:103A20007D932A95E9F710C07D932A9589F606942F
:103A300097956795379517951794E118F10A430BF9
:103A4000560BC90BD00998F023957E9173957A3364
:103A500008F070E37C932013B8F77E9170617D933A
:103A600030F0839571E37D9370E32A95E1F711249B
:103A7000EF90FF900F911F91CF91DF91992787FDD4
:103A800090950895FC010590615070400110D8F7A1
:103A9000809590958E0F9F1F0895FC016150704096
:103AA00001900110D8F7809590958E0F9F1F089573
:103AB0000F931F93CF93DF93182F092FEB018B8167
:103AC00081FD09C01FEF0FEF812F902FDF91CF9164
:103AD0001F910F91089582FF14C02E813F818C8128
:103AE0009D81281739073CF4E881F981CF010196BF
:103AF0009983888310838E819F8101969F838E8313
:103B0000E3CFE885F985812F0995892BA1F3DACFD9
:103B1000AEE0B0E0EEE8FDE10C94D11B0D891E890A
:103B20008F89988D26E02C831A83098397FF02C022
:103B300080E090E801979E838D83AE01455E5F4FE4
:103B4000698D7A8DCE0101960E94D7154D815E81D7
:103B500057FD0AC02F813885421753070CF49A018C
:103B6000020F131FF80110822E96E4E00C94ED1B57
:103B7000FA01AA27283051F1203181F1E8946F939E
:103B80006E7F6E5F7F4F8F4F9F4FAF4FB1E03ED044
:103B9000B4E03CD0670F781F891F9A1FA11D680FE2
:103BA000791F8A1F911DA11D6A0F711D811D911D15
:103BB000A11D20D009F468943F912AE0269F11248A
:103BC0003019305D3193DEF6CF010895462F4770EE
:103BD000405D4193B3E00FD0C9F7F6CF462F4F7049
:103BE000405D4A3318F0495D31FD4052419302D0A7
:103BF000A9F7EACFB4E0A69597958795779567954D
:103C0000BA95C9F700976105710508959B01AC014C
:103C10000A2E06945795479537952795BA95C9F773
:103C2000620F731F841F951FA01D0895052E97FB1B
:103C30001EF400940E942D1E57FD07D00E94481EBE
:103C400007FC03D04EF40C942D1E509540953095F2
:103C500021953F4F4F4F5F4F0895909580957095F8
:103C600061957F4F8F4F9F4F08950E946A1EA59FB9
:103C7000900DB49F900DA49F800D911D1124089567
:103C8000B7FF0C94351E0E94351E821B930B0895BE
:103C9000A1E21A2EAA1BBB1BFD010DC0AA1FBB1F50
:103CA000EE1FFF1FA217B307E407F50720F0A21BC2
:103CB000B30BE40BF50B661F771F881F991F1A942F
:103CC00069F760957095809590959B01AC01BD0159
:103CD000CF010895A29FB001B39FC001A39F700DB3
:103CE000811D1124911DB29F700D811D1124911D04
:063CF0000895F894FFCFD7
:103CF6001C3F7FFED85237161810387EFFDF72360B
:103D06001C18183C08183C3C7EFF7E3C08085424CE
:103D16003BB65D3818183C7E1C382AFC557FFFB729
:103D26008123BD2CBD388120FFFCC174FFFCB36E1E
:103D3600B36B1FF02AA85554FFFE8214BA14BA14A6
:103D4600BA148214FFFC8354FFFEFFFF1F003F805E
:103D560060C02E8E209F2E9F3F8460C52E852082B8
:103D6600FFFA55517FF3000C087E14FE2AF755170B
:103D7600FF9841105D205D2041207FFF41AA7FFF13
:103D8600608026FE8026AA802FD6802FAA8026FE57
:103D9600802682802FBA802FAA8026AA80262442D7
:103DA600A599BDBDC3BD7EFFFFFFFFFFFFFFFFFF60
:103DB600FF800000000000000000018F80FC000072
:103DC60000300010719FC0C6000000300029F9B015
:103DD60060C67C7C7C78F855ED9740FC06C6C631FB
:103DE6008CAA2D9046D87EC0FE318DFF31974ECCE1
:103DF600C6C6C0318C8221B06EC67E7C7C1CF8BAE9
:103E0600419742000000000000BA4190429FC00066
:103E16001818008241FFFD00C000180000FFFDAA2F
:103E2600A9018F9DDF99F08355BFFB0318DAD8DB14
:103E360018FFFD80000618DAD8DBF800018A800C2E
:103E460018DAD8DB0000E184801FCF9ADF99F001F1
:103E5600F9876000000000000003F996C410000016
:103E660006003007F18BA630000006000006C18769
:103E76000773E637CF1F37C2918307F636366601DA
:103E8600B661B98306B63636661FB660B187863622
:103E960036366631B660C18FC633E3F6639FB660C9
:103EA6008180000000000000000001FFFFFFFFFF0F
:103EB600FFFFFFFFFF1F30540101000000256600D1
:103EC60025640050415553454420564945570054F2
:103ED600696D65203D0044697374203D00433A00D6
:103EE6007C533A20202020007C463A004D617474B1
:103EF60020487574636869736F6E006E38353438A0
:103F060036323500504C41594552204C4F535400DF
:103F1600504C415945522057494E5300504C415937
:103F260020414741494E3F00593A20535732207CA1
:103F3600204E3A205357330047414D45204F5645B2
:023F4600520027
:00000001FF
